:020000040800F2
:1000000020390020990100087D1A00089710000887
:10001000791A00087F06000881950008000000009A
:100020000000000000000000000000007D3E00080D
:10003000F908000800000000070200082D4200082F
:10004000B3010008B3010008B3010008B3010008C0
:10005000B3010008B3010008B3010008FD0800085F
:10006000B3010008B3010008B3010008B3010008A0
:10007000B3010008B3010008B3010008B301000890
:10008000B3010008B3010008B3010008B301000880
:10009000B3010008B3010008B3010008B301000870
:1000A000B3010008B3010008B3010008B301000860
:1000B0005D430008B3010008B3010008B301000864
:1000C000B3010008B3010008B3010008B301000840
:1000D000B30100088D44000819450008A94500082F
:1000E000B3010008B3010008B3010008B301000820
:1000F000B3010008B3010008B3010008B301000810
:10010000B3010008B3010008B3010008B3010008FF
:10011000B3010008B3010008B3010008B3010008EF
:10012000B3010008B3010008B3010008B3010008DF
:10013000B3010008B3010008B3010008B3010008CF
:10014000B3010008B3010008B30100088D2D0008B9
:10015000B3010008B3010008B3010008B3010008AF
:10016000B3010008B3010008B3010008B30100089F
:10017000B3010008B3010008B3010008B30100088F
:10018000B3010008DFF80CD000F0E6F800480047A3
:1001900019B000082039002006488047064800476B
:1001A000FEE7FEE7FEE7FEE7FEE7FEE7FEE7FEE727
:1001B000FEE7FEE70143000885010008EFF3108029
:1001C00072B6704780F3108870471F484FF0FF01E8
:1001D0000170002080F309881C48016881F30888B9
:1001E0001B48012101701B484FF08051016062B62D
:1001F000FEE718484FF080510160704715484FF0F6
:1002000080510160704772B6EFF3098028B1203841
:1002100080E8F00F10490968086000B50F48804772
:100220005DF804EB0E480F490A7802700A480E493F
:100230000A680260106890E8F00F203080F30988A7
:100240004EF0040E62B6704722ED00E01802002066
:10025000ED01002004ED00E0F4010020B9220008C7
:10026000E7010020E8010020FC01002040EA010332
:100270009B0703D009E008C9121F08C0042AFAD25C
:1002800003E011F8013B00F8013B521EF9D2704720
:10029000D2B201E000F8012B491EFBD270470022C8
:1002A000F6E710B513460A4604461946FFF7F0FF75
:1002B000204610BD421E12F8013F002BFBD111F861
:1002C000013B02F8013B002BF9D1704730B50546E0
:1002D0002A460B4612F8010B13F8014B08B1A04255
:1002E000F8D01CB1002802D06D1CF1E7284630BDC3
:1002F000421C10F8011B0029FBD1801A704730B551
:1003000004460020034600E05B1C934203D2E05CFD
:10031000CD5C401BF8D030BD034611F8012B00F82E
:10032000012B002AF9D11846704730B50B4601461B
:1003300000202022012409E021FA02F59D4205D384
:1003400003FA02F5491B04FA02F52844151EA2F12E
:100350000102F1DC30BD0000064C074D06E0E0680C
:1003600040F0010394E8070098471034AC42F6D3FC
:10037000FFF70CFF30EB000850EB000870B501EB05
:10038000020410F8015B15F0070301D110F8013BDE
:100390002A1106D110F8012B03E010F8016B01F8C7
:1003A000016B5B1EF9D12B0705D40023521E0FD41D
:1003B00001F8013BFAE710F8013B02F10202A1EB60
:1003C000030303E013F8015B01F8015B521EF9D54A
:1003D000A142D6D3002070BD08B500BF03F068F875
:1003E00014E06A4664210A48006801F091FC9DF817
:1003F000000010B902F0ECFF08E09DF800000A28A8
:1004000004D104484078401C02494870E9E70000E4
:10041000680000206C0000201FB500BF03A813A1D6
:100420000022144BCDE90021029001221421642006
:1004300002F012F8044603A9204602F047F803A888
:100440000DA100220E4BCDE90021029002223221A3
:100450004FF4FA7002F000F8044603A9204602F0B7
:1004600035F802E0C82001F059FFFBE774696D65BB
:100470003100000093B3000874696D65320000001C
:10048000A1B3000810B586B0044601F017FF01F0D3
:1004900005FD032000214FF480721D4BCDE9013290
:1004A000CDE90310052003461A4A00901A4801F0CE
:1004B0006DFD032000214FF48072184BCDE901320D
:1004C000CDE9031006200346154A0090154801F0B7
:1004D0005DFD032000214FF48072134BCDE9013202
:1004E000CDE903100E200346104A0090104801F099
:1004F0004DFD002001F0E6FB0E490860002001F0F0
:10050000E1FB0D490860FF2001F09EFD06B010BD23
:10051000C80A0020C40E00203D050008C80E0020B7
:10052000C4120020D9030008C8120020C4160020FD
:100530001904000860000020680000201CB5012498
:1005400000BF44B11748184B184A012100901848C1
:1005500005F05EFB07E01348164B144A012100909A
:10056000134805F055FB1BE001AA01211248006861
:1005700001F0CEFB0D490E4806F0E8FB9DF80400A3
:1005800028B90E480078401C0C49087008E09DF816
:1005900004000A2804D109480078401C0749087063
:1005A000E2E700000C000020A4000020741C0020E2
:1005B000C816002084010020600000206C0000208C
:1005C00010B502F0C9FC58B106480068401C054946
:1005D0000860B0F57A7F03D30020086003F0D8FBF1
:1005E00010BD00005C00002070B505460C460848B0
:1005F0000560204600F00EF800BF0548006800289E
:10060000FBD100214FF0804003F0BBFE70BD000025
:10061000000000203EB5044600214FF0804003F06A
:10062000B0FE00220121880703F0C8FE022C02D18F
:100630000B20019004E0012C02D142F6DF60019012
:100640000520ADF800000020ADF80800ADF802006C
:1006500069464FF0804003F0BBFE0121880703F09C
:100660008DFE0121880703F07DFE012211469007CF
:1006700003F0A4FE0121880703F083FE3EBD00BF06
:10068000FEE700000FB42DE9F04F87B011A80190EC
:10069000002724E110980078252808D0002710981A
:1006A00010F8011B1090032004F08EF917E1109848
:1006B000401C109000786D2878D00CDC642817D08E
:1006C00004DC532873D0632872D193E0682870D07B
:1006D0006C28F9D150E073286CD004DC6F285AD014
:1006E0007028F1D1C1E0742828D07828ECD162E0DC
:1006F000019830F8041B1FFA81FB01907DA10320B3
:1007000004F023F9002416E0C4F10100C0004BFA04
:1007100000F0C6B2301102F07DFC014600900320CB
:1007200004F0A8F8304602F075FC01460090032062
:1007300004F0A0F8641C022CE6D3CBE0019850F83A
:10074000048B0190C246019820C80190002410E05B
:100750003AF8021B002202A802F020FC06463246AC
:1007600002A9032004F0D0F82021032004F082F82D
:10077000641CAC42ECD3ADE0019820C80190A9B252
:100780003A4602A802F00AFC0646324602A90320B5
:1007900004F0BAF89EE0019810F8041B0190C8B26A
:1007A00006900320069904F097F893E03AE04FE0B2
:1007B00080E02AE043E0019820C80190002416E080
:1007C000C4F10300C00025FA00F0C6B2301102F0F7
:1007D00021FC01460090032004F04CF8304602F062
:1007E00019FC01460090032004F044F8641C042C1A
:1007F000E6D36FE0019810F8041B0190C8B2069090
:100800000320069904F036F864E0019850F8048B50
:100810000190019820C80190AAB24146032004F03B
:1008200085F857E0019850F8048B0190019820C892
:100830000190AAB24146032004F066F84AE001980C
:1008400050F8049B01904946032004F07EF841E0F3
:10085000019850F8048B0190019820C80190AAB229
:100860004146032004F050F834E0019850F8048B1E
:10087000019045461FA1032004F067F8002416E00C
:10088000C4F10300C00025FA00F0C6B2301102F036
:10089000C1FB01460090032003F0ECFF304602F05C
:1008A000B9FB01460090032003F0E4FF641C042C14
:1008B000E6D30FE010980778302F05DD392F03DAE3
:1008C000A7F13000C7B204E000272521032003F080
:1008D000D1FF00BF00BF1098401C109000BF1098BF
:1008E000007800287FF4D6AE019007B0BDE8F00F85
:1008F0005DF814FB307800007047000010B502204E
:1009000000F012F838B10449D1F88C1048698047DA
:10091000022000F003F810BD741C0020014908609B
:1009200070470000143C0140014600200022074BA4
:100930001B6803EA0102054B14331B680B4202D00B
:100940000AB1012000E0002070470000003C014097
:10095000002123498279002A3AD00A4612680368A6
:100960009A430B461A600A1D126803689A430B1DCE
:100970001A60027911440A6803681A430A60184A27
:100980000832126803689A43154B08331A601A1D1F
:10099000126803689A43124B0C331A604279102A8A
:1009A0000ED11A1F126803681A430D4B08331A60E0
:1009B0001A1D126803681A43094B0C331A600DE0C4
:1009C0000749427911440A6803681A430A6005E03E
:1009D000027911440A6803689A430A60704700006C
:1009E000003C0140F0B591B007460C46394604A8DA
:1009F00009F076FE0546002D78D197E00BA904A8F2
:100A000009F08AFF054615B99DF8350000B993E055
:100A10009DF835002E2800D188E00DF135063146CD
:100A20006846FFF779FC46480078401C4449087046
:100A300008460078092823DD002008704FF4FC6088
:100A400001F004F83FA1C62000F0F8FC49A1D22033
:100A500000F0F4FC4FF6FF7000F0F8FF4CA00AF035
:100A6000AEFD04E003F0F6FC0A2006F04DFF50480E
:100A700000F0F6FA20B1022003F09CF90128F1D031
:100A8000012C0ED147F6FF704A4908804AA008F0B1
:100A900079FD49A00AF093FD4FF6FF7045490880A3
:100AA0000FE0022C0DD147F6FF704249088044A0A8
:100AB00008F068FD42A00AF082FD4FF6FF703D4944
:100AC00008809DF8340000F03F0010280FD13FA1AE
:100AD0006846FFF7EFFB4FF6FF703649088068461F
:100AE00008F050FD68460AF06AFD12E025E037A1E3
:100AF0006846FFF7DFFB47F6FF702E49088068461F
:100B000008F040FD68460AF05AFD4FF6FF7029498B
:100B100008809DF8340000F03F00102805D1012C1A
:100B200003D102213046FFF75DFF00BF204800F0EF
:100B300097FA00287FF462AF00BF284611B0F0BDDD
:100B400009000020202020202020202020202020FC
:100B50002020202020202020202020202020202095
:100B60002020202020202020202020202020202085
:100B7000202000005072657373204B657932207419
:100B80006F20636F6E74696E75652E2E2E000000E7
:100B90000D0A205072657373204B65793220746F93
:100BA00020636F6E74696E75652E2E2E0D0A00001F
:100BB000C8160020CA0000202020207C5F5F0000B3
:100BC0002020207C2020207C5F5F00000A000000A5
:100BD0000146488808B9012070470020FCE70280E0
:100BE0000023438041608B1883604368C36043687F
:100BF0000361704770B504460026608808B9FF207D
:100C000070BDFFF7DBFA06462169481C20610D78AC
:100C1000A1682069884201D3606820616088401E15
:100C200060803046FFF7CEFAE8B2E9E70021418064
:100C3000416801614168C1607047000010B5044619
:100C400004EB440101EBC4012A4A02EB8101081DB7
:100C5000FFF7BEFF00284AD104EB440000EBC400BC
:100C6000244951F8200040F0010004EB440101EB5D
:100C7000C401204A42F82100012C0FD104EB4401A9
:100C800001EBC40102EB8101081DFFF7B3FF1A4914
:100C900088800121184803F07DFD26E0022C11D147
:100CA00004EB440101EBC401124A02EB8101081D6F
:100CB000FFF7A0FF1149088001211048001F03F031
:100CC00069FD12E0032C10D104EB440101EBC401D7
:100CD000084A02EB8101081DFFF78CFF08490880D4
:100CE00001210748001F03F055FD012010BD002021
:100CF000FCE7000090260020001001400444004062
:100D00000448004070B504460D46002660882188DE
:100D1000884201DB002070BDFFF750FA0646E1680B
:100D2000481CE0600D70D4E90210884201D360686D
:100D3000E0606088401C60803046FFF743FA012085
:100D4000E9E7028041604368836070470146D1E96A
:100D50000120904201D1012070470020FCE70146AC
:100D60000A88486810448A68904201D80120704778
:100D70000020FCE7014608898A88801A80B2704703
:100D800000B503461846FFF7E1FF08B1FF2000BD9C
:100D90009868401E986098680078F8E7416881601C
:100DA000704701464868704710B503460C46184620
:100DB000FFF7D5FF08B1002010BD9868047098684F
:100DC000401C98600120F7E751B14FF0204252F8E3
:100DD000202042F001024FF0204343F8202009E098
:100DE0004FF0204252F82020034B1A404FF020438E
:100DF00043F8202070470000FEFF0F00D0E90112E9
:100E00001143C26811430269114342691143826967
:100E10001143C2691143026A1143426A1143826A53
:100E20001143C26A1143026B11434FF02043026821
:100E300043F822108168082908D11A46016852F83F
:100E4000211041F04001026843F82210416B09680B
:100E5000426B526841EA0211426B926841EA0221F8
:100E6000426B928941EA0241426B128A41EA025185
:100E7000426B127D41EA0261426B92691143026842
:100E8000521C4FF0204343F82210C16AB1F5804F45
:100E90001AD1816B0968826B526841EA0211826B38
:100EA000926841EA0221826B128A41EA0251826B06
:100EB000127D41EA0261826B92691143026803EB81
:100EC0008202C2F8041108E06FF070414FF0204335
:100ED000026803EB8202C2F804117047F0B50A46BB
:100EE00000210023002400BF3DE0012505FA01F3A5
:100EF000156805EA03049C4234D105684F000326B7
:100F0000BE40B543056015794E00B54006683543CF
:100F100005601579012D02D01579022D16D185684D
:100F20004F000326BE40B543856055794E00B5405D
:100F3000866835438560456801268E40B543456027
:100F4000456896798E40B6B235434560C5684F0016
:100F50000326BE40B543C560D5794E00B540C6688E
:100F60003543C560491C1029BFD3F0BDF0B500233F
:100F700000244D07ED0E02FA05F3CE1000F1200516
:100F800055F826504E07F70E0F26BE40B543CF103A
:100F900000F1200646F82750CE1000F1200555F844
:100FA000265045EA0304CE1000F1200545F82640FE
:100FB000F0BD0246002013690B4201D0012000E081
:100FC000002070474183704701837047014648699C
:100FD000806880B2704708B50146D1F8CC0000683F
:100FE00000900098C0F3414008BD024602F29B30D9
:100FF000405C7047024602F5547050F8210070477B
:1010000070B504460E4600250021C4F8101300BF39
:101010000BE0002104F5457040F825103C3040F805
:1010200025103C304155681CC5B20F2DF1DB08215D
:10103000A4F8B2133146204607F006FB204606F01E
:101040000DFF204606F0D6FD0121204607F064FB87
:10105000204606F062FE204606F059FF002070BDD3
:101060000146D1F81003704710B50446204607F03A
:10107000CAFA002010BD70B504460D46002104F2E6
:101080009B304155113000EB451041612946204607
:1010900007F068F970BD00BFFEE70000F0B595B03D
:1010A00005460127294608A809F01AFB0646002E26
:1010B00055D100BF0FA908A809F02EFC064616B9A5
:1010C0009DF8450000B949E09DF845002E2800D163
:1010D000F0E70DF145049DF8440010F0100F00D02A
:1010E000E8E730A12046FFF7F1F828B92EA1204605
:1010F000FFF7ECF8002830D000208DF800002946DA
:101100006846FFF709F929A16846FFF7D3F8214699
:101110006846FFF7CFF801226946254809F01CFA16
:101120000646694623A00AF04AFA02F02FFF64201F
:1011300006F052FD002704E00A2006F0E5FB03F06C
:1011400089F92848FFF78CFF20B1022002F032FE17
:101150000128F1D0164809F0FDF8ABE700BF22A046
:1011600000F012FB26A000F0DCFA4FF6FF702E49CB
:1011700008802E4800682D4A12895043010D2CA08A
:1011800008F000FA29480068284A12895043010DE6
:1011900027A00AF014FA01202D490870384615B02E
:1011A000F0BD0000626D7000424D50002F00000045
:1011B000A40500200A0A2041524D4A49534855C906
:1011C000F1D6DB53544D3332BFAAB7A2B0E5A3AC7E
:1011D000CFD4CABE424D50CDBCC6AC3A2025732EEA
:1011E00000000000C816002020555342204F5447ED
:1011F000204653204D534320486F73740000000075
:101200002041524D4A495348552E434F4D20555386
:101210004220486F7374204C696272617279207643
:10122000322E312E30000000CA000020041F0020A2
:101230003E204469736B2063617061636974792037
:101240003A202564204D2042797465730A0000001D
:101250000800002030B50446002540F23F11002070
:1012600000F0A2FB00F0FEFB00BF03E04FF0D8400F
:1012700044806D1CB5F5963FF8D330BD30B50546BA
:10128000002409E020222146284600F0BFF8054846
:1012900000688088204484B2A0B2B0F5A07FF1DB62
:1012A00030BD0000640100201CB50121782001F050
:1012B00075FD4CF23370009002208DF804008DF81B
:1012C000050000208DF806008DF8070069464A48A1
:1012D000FFF704FE0C2200214748FFF747FE0C22CF
:1012E00001214548FFF742FE0C2204214248FFF746
:1012F0003DFE0C2205214048FFF738FE0C22082154
:101300003D48FFF733FE0C2209213B48FFF72EFE34
:101310000C220A213848FFF729FE0C220E213648FC
:10132000FFF724FE0C220F213348FFF71FFE4FF674
:101330008070009069463148FFF7D0FD0C220721EC
:101340002E48FFF713FE0C2208212C48FFF70EFE53
:101350000C2209212948FFF709FE0C220A212748FF
:10136000FFF704FE0C220B212448FFF7FFFD0C229F
:1013700011462248FFF7FAFD0C220D211F48FFF706
:10138000F5FD0C220E211D48FFF7F0FD0C220F2168
:101390001A48FFF7EBFD0120009069461848FFF757
:1013A0009DFD0C2200211648FFF7E0FD4FF4805010
:1013B000009069461348FFF791FD0C221146114831
:1013C000FFF7D4FD0121042001F0E8FC802000900B
:1013D00001208DF8040002208DF8050000208DF812
:1013E00006008DF8070069460748FFF777FD802162
:1013F0000548FFF7E9FD1CBD000C0240001002404B
:1014000000140240001802400008024070B5054672
:101410000E461446A4F12000C4B2074800680168D3
:1014200005480068C088604301EB40023146284609
:1014300000F040F870BD00006401002070B5064661
:101440000C4600250AE0227829463046FFF7DEFFE9
:101450000A4800688088284485B2641C207808B156
:10146000012000E00020A9B2B1F5A07F01DA01213E
:1014700000E000210842E6D170BD000064010020B8
:1014800030B50546002400BF0FE004EBC400084B54
:1014900003EBC00204EB4400042303EBC00081B261
:1014A000284600F06BF8601C84B20D2CEDDB30BDDB
:1014B000ECE200082DE9F043074688461646002571
:1014C0000024A146B9464146484600F06DFA00BFE7
:1014D00047E000F0C7FA002435E02548006880881E
:1014E0000C2190FBF1F0C10080208840204136F8AB
:1014F0001510084204D11E48006880880C280ADDB7
:1015000036F815000121A140084217D1184800689B
:1015100080880C2812DD17480088012804D015485F
:10152000008800F09BFA0DE008EB0400401C81B23B
:10153000484600F039FA00F095FA03E00E480088BA
:1015400000F08CFA641C0A4800688088A042C4D865
:1015500009F101001FFA80F94146484600F024FADB
:101560006D1C03480068C088A842B2D8BDE8F0836B
:10157000640100205E0100205C0100202DE9F0479D
:1015800007468A469046002400250026A146B94613
:101590005146484600F008FA00BF26E000F062FA23
:1015A000002617E0002512E0032000FB046018F875
:1015B000000080212941084204D14FF4784000F016
:1015C0004DFA03E04FF6E07000F048FA6D1C082D6C
:1015D000EAD3761C032EE5D309F1010000F0FF09E0
:1015E0005146484600F0E0F9641C182CD6D3BDE8FB
:1015F000F08700B59DB00121084601F0EFFB0820FF
:101600000790002008900720099000200A900B9076
:101610000C904FF080500D90012000900020019020
:101620000220029000200390049005904FF080501B
:10163000069006200E9000200F9010901020119020
:101640000020129013901490159016904FF4805033
:101650001790002018904FF48040199000201A90A5
:1016600007A81B90CDF870D00EA8FFF7C7FB01218B
:101670000620FFF7A9FB1DB000BD0000014800686F
:10168000704700006401002070B50024FFF7F6FFEA
:10169000054600BF07E0E988E21C514388B2FFF726
:1016A000EDFD601CC4B20C2CF5DB00F001F870BD40
:1016B0004FF6FF700C49088000200C4908800C4947
:1016C00008800C4908800C4908800C4908800120DA
:1016D0000B49087000200B4908700B4908700B4932
:1016E00008700B4908807047CA000020CC00002019
:1016F000CE000020D0000020D2000020D400002026
:10170000D6000020D7000020D8000020D9000020FB
:10171000DA00002010B5FFF7CBFF0020FFF79AFD9D
:1017200010BD70B58AB006461F2000F027F9FFF7FC
:10173000A5FF0446002504E020200DF80500681CE4
:10174000C5B2A0884FF4A07191FBF0F0401EA842F2
:10175000F2DCA08891FBF0F0401E00220DF8002082
:10176000E188C1F1F00188B26946FFF767FEE188C0
:10177000C1F1F00188B23146FFF760FE002000F0B1
:10178000FDF80AB070BD00002DE9F04188B00746B1
:101790000026B84600E0761C18F8011B0029FAD193
:1017A0001A2E00D91A26002403E0202001A908558A
:1017B000641C1B2CF9D3002407E0385DC6F11B0123
:1017C00004EB510101AA5054641CB442F5D300202B
:1017D000FFF740FD194800F019F9FFF74FFF0546E4
:1017E0004FF6FF7000F032F91F2000F0C7F800201C
:1017F000FFF744FDE88801A9FFF720FE01A910A02A
:1018000009F0DDFEE9884904080CFFF737FD4FF6C3
:10181000E07000F01BF910A10020FFF70FFEE9882F
:101820004904080C12A1FFF709FE002000F0A6F8F9
:10183000154800F0EBF808B0BDE8F0814401002045
:101840000A202D2D2D2D2D2D2D202573202D2D2DD4
:101850002D2D2D2D200A00002020202020202020AA
:1018600041524D4A495348552E434F4D20202000A8
:10187000202020202020535A572D53544D333246D8
:101880003230375A475420004C0100202DE9F041F6
:1018900000240027A0460025FFF7F0FE0646314849
:1018A00000880B2825DA2F4800882F4909888842AC
:1018B0001FDB2C490988214401EB810202EBC101A5
:1018C0002A4A02EB8101488E00F0C0F8254A1288AE
:1018D000D21CF3885A4390B2224A1288224402EB67
:1018E000820303EBC202214B03EB8201FFF7A6FD4B
:1018F00035E01C4800881C490988884204DA1948E8
:1019000000880C3087B201E016480788A7F10B0069
:101910001FFA80F8002420E004EB08000C2190FB63
:10192000F1F201FB120085B205EB850101EBC50167
:101930000E4A02EB8101488E00F088F805EB850223
:1019400002EBC502094B03EB8201F288E31C5A4308
:1019500090B2FFF773FD601CC4B20C2CDCDBBDE859
:10196000F0810000D0000020CE0000209E23002047
:1019700001464FF0D84001804088704701B5BDF85E
:1019800000000149088008BD5E01002003B5BDF8D4
:10199000000003490880BDF80400024908800CBD1E
:1019A0005C0100205E01002010B503460C4616487D
:1019B0000088A0F50941893908D119464E2000F068
:1019C00056F821464F2000F052F81CE00E480088DF
:1019D000A0F5134125390BD11946202000F047F816
:1019E00040F23F10001B81B2212000F040F80AE0D5
:1019F0002146202000F03BF840F23F10C01A81B28F
:101A0000212000F034F810BD600100200149086079
:101A1000704700006401002070B506460C4615466C
:101A2000F02E02DCB4F5A07F03DD07A009F0C7FDAE
:101A300070BD21463046FFF7B7FF00F013F8284687
:101A400000F00CF800BFF3E72A00000001B5BDF874
:101A500000000149088008BD5C0100204FF0D8411A
:101A60004880704722204FF0D841088070474FF0DF
:101A7000D84210805180704700BFFEE770470000D9
:101A800070B5002100230F22C47824B3174C2468BA
:101A900004F4E064C4F5E064C4F30721C1F1040474
:101AA000E3B20A4144789C40E1B284781440214377
:101AB0000C07210E0E4C05786155047804F01F05C3
:101AC0000124AC4005786D114FF0E02606EB85054A
:101AD000C5F8004109E0047804F01F040125A54081
:101AE000044C0678761144F8265070BD0CED00E0E9
:101AF00000E400E080E100E002490143024A116095
:101B0000704700000000FA050CED00E0024A0A40B0
:101B10000243024B1A60704780FFFF1F08ED00E090
:101B200010B500F011F800F005FF00F029FF00F0FB
:101B300049FF00F0DBFE00F07DFF00F095FF00F0B4
:101B400027FD00F019F810BD0748802102E0491E6A
:101B5000002204C00029FAD1044A054B1A60002271
:101B6000044B1A8070470000203300201C350020F1
:101B7000180200201C020020704700000648007870
:101B8000012808D105480078FF2804D203480078CE
:101B9000401C024908707047ED010020E50100205B
:101BA00010B5002417480078012829D1FEF706FB5C
:101BB00004461548007820B113480078401E1249A9
:101BC000087011480078C0B910480078A8B900F032
:101BD000A3FF0F480F49097850F821000E4908600B
:101BE0000C4800780D490978884206D00C480068F6
:101BF000401C0B490860FEF701FB2046FEF7E2FAA5
:101C000010BD0000ED010020E5010020E6010020EC
:101C1000F42E0020E8010020FC010020E701002054
:101C2000D001002010B500240B480078012811D104
:101C3000FEF7C4FA04460948007840B9084800781D
:101C4000FF2804D206480078401C05490870204649
:101C5000FEF7B8FA10BD0000ED010020E5010020FC
:101C6000E601002010B5002413480078012821D196
:101C7000FEF7A4FA044611480078C0B9104800786D
:101C800088B10F480078401E0D490870084600785A
:101C900028B92046FEF796FA00F00AFF0AE020462F
:101CA000FEF790FA06E02046FEF78CFA02E02046A6
:101CB000FEF788FA10BD0000ED010020E5010020CC
:101CC000E601002070B5054600260F48007808B1EF
:101CD000002070BDFEF772FA06460C4804680068E2
:101CE00020B10A4800684068084908603046FEF79D
:101CF00069FA3CB1032020702581002060602046F5
:101D000000F0E6FD2046E4E7E5010020D4010020D4
:101D10002DE9F04105460E46144600272878032891
:101D200003D001202070BDE8F0813148007810B167
:101D300002202070F7E72F48007810B10D202070A6
:101D4000F1E7FEF73BFA0746288940B12889401E93
:101D500028813846FEF736FA00202070E3E726484F
:101D6000006890F8240040F001002349096881F8D8
:101D7000240000202049096881F825001E480068D9
:101D80000662284600F066FD3846FEF71BFA00F0B2
:101D90008FFEFEF713FA07461748006890F82500F3
:101DA00020B1012809D0022806D102E000202070CD
:101DB0000BE00E20207008E000BF29460E480068A6
:101DC00000F032FD0A20207000BF00BF00200A4949
:101DD000096881F824000849096881F82500064946
:101DE0000968C8613846FEF7EDF900BF9BE70000BF
:101DF000E5010020E6010020F401002070B5044652
:101E000000252078032801D0012070BDFEF7D6F907
:101E10000546A07A60B1002301221946204600F051
:101E2000C1FC2846FEF7CEF900F042FE0020ECE7A8
:101E300020894FF6FF71884207D22089401C2081FB
:101E40002846FEF7BFF90020DFE72846FEF7BAF97B
:101E50003320DAE710B50B48007890B900F05CFE4B
:101E6000094800780949087009480749097850F875
:101E70002100084908600846006807490860FEF725
:101E8000A4F910BDED010020E8010020E7010020C9
:101E9000F42E0020FC010020F401002010B50024E5
:101EA000022000F03BFAFEF789F9044600200B49B6
:101EB00008602046FEF786F9642000F02FFAFEF74E
:101EC0007DF9044605480068054908600120054978
:101ED00008702046FEF776F910BD0000F0010020E2
:101EE000DC010020E4010020704700002DE9FE4FD6
:101EF00006460F4690461C464FF00009FEF75EF975
:101F000081461F48007828B14846FEF75BF93C201F
:101F1000BDE8FE8F1B4850F8240060BB0120194922
:101F200041F824004846FEF74DF900234246394661
:101F3000304600F073F9824600200090019003467D
:101F4000024651460290204600F0FCFD054635B998
:101F50000D48007801280CD100F0AAFD09E0FEF739
:101F60002DF981460020074941F824004846FEF734
:101F700029F92846CCE74846FEF724F92820C7E788
:101F8000E5010020F42E0020ED0100202DE9F04FA6
:101F900085B081468A4693461C46DDE90F78129D3E
:101FA00000200390FEF70AF903902348007830B12F
:101FB0000398FEF707F93C2005B0BDE8F08F1F48F5
:101FC00050F8240088BB01201C4941F824000398E4
:101FD000FEF7F8F82A464146384600F0C9FE2B467F
:101FE0005A465146484600F019F904901198CDE937
:101FF000008002953A4620460E9B049900F0A2FD0F
:10200000064636B90E48007801280CD100F050FD84
:1020100009E0FEF7D3F803900020084941F82400B6
:102020000398FEF7CFF83046C6E7FFE70398FEF7C0
:10203000C9F82820C0E70000E5010020F42E0020A8
:10204000ED0100207047000070B5054600264348AA
:10205000007808B1402070BD102D01D13E20FAE774
:10206000FEF7ACF80646FF2D03D13D48006890F816
:1020700026503C4850F8254024B93046FEF7A2F8D7
:102080004320E8E7012C04D13046FEF79BF83D20C1
:10209000E1E714F8280F3449085C61788843217817
:1020A000314A505414F828091146085C30B994F8A4
:1020B0002A102E48007888432C490870E06918B12E
:1020C0002046E16900F0B0FB0020206284F8240083
:1020D00084F8250026480078FF2804D22448007898
:1020E000401C234908703046FEF76CF800F058FB9E
:1020F000FEF764F806461E48007820B11C480078B8
:10210000401E1B490870204600F03CF81948007832
:10211000401E184908700020124941F82500A069A6
:1021200030B900206169886113496069086005E081
:10213000D4E905014861D4E9051088610F480068B9
:1021400060610E4804603046FEF73CF80C480078A9
:10215000012801D100F0ACFC00207CE7E501002063
:10216000F4010020F42E0020EA010020E901002003
:10217000E6010020EE01002000020020F80100200E
:10218000ED010020704710B5FEF71AFA10BD704738
:10219000704700002DE9F04707460D464FF0000A52
:1021A000002028606860FEF709F88246FF2F03D1FF
:1021B0001848006890F82670174850F827402CB946
:1021C0005046FDF7FFFF4320BDE8F087012C04D106
:1021D0005046FDF7F7FF4320F6E7207C10F0010F93
:1021E00004D15046FDF7EEFF4520EDE70026D4F878
:1021F0000C90D4F808805046FDF7E4FF00E0761C10
:1022000058F8041B0029FAD02E60A9EB060068607C
:102210000020D9E7F4010020F42E002070B5044618
:1022200010464FF080750560051F28462C60214E32
:10223000051F28462E604FF01236051F28462E60D7
:102240004FF00336051F28462E604FF00236051F5B
:1022500028462E607610051F28462E60051F28464A
:1022600029604FF01136051F28462E604FF01036BA
:10227000051F28462E604FF00936051F28462E60A0
:102280004FF00836051F28462E604FF00736051F11
:1022900028462E604FF00636051F28462E604FF068
:1022A0000536051F28462E604FF00436051F2846C8
:1022B0002E6070BD852C0008704700007FB5684611
:1022C00000F0BCFD4FF47A720198B0FBF2F1481EA9
:1022D000B0F1807F00D31BE0481E4FF0E022506138
:1022E00050170F22002807DA13071D0E094B00F0C4
:1022F0000F04241F1D5503E013071C0E064B1C542E
:1023000000BF00204FF0E02290610720106100BF65
:102310007FBD000018ED00E000E400E070B5054668
:1023200000261748007800B170BD1648007800B14B
:10233000FAE71DB3FDF742FF06461348006890F820
:1023400028401248005D1049096891F82910884317
:102350000E4908550846005D40B90B48006890F8E2
:102360002A100B480078884309490870064800681D
:1023700005623046FDF726FF00F09AFB00BFD3E769
:10238000E5010020E6010020F4010020EA01002020
:10239000E901002070B5002500F04CF821480078D4
:1023A00001283ED12048046837E0FDF707FF0546C5
:1023B000206A70B3206A401E2062206A48BB94F8ED
:1023C000240010F0370F09D014F8240F00F0C800D3
:1023D000207001206070A4F1240402E0002084F841
:1023E000250094F8240010F0080F12D104F12804FD
:1023F000A0780E49097840EA01000C49087020785D
:102400000B49085C617840EA010014F82819084A71
:10241000505464692846FDF7D5FE94F8260010282C
:10242000C3D170BDED01002000020020E9010020B1
:10243000EA01002010B507480088401C05490880C3
:10244000084600880A2803D30020088000F034F8EA
:1024500010BD00001C0200202DE9F05F06460F466B
:1024600090469946DDE90AAB0C9D1248007820B1F0
:102470008B2028700020BDE8F09FFFF7D3FB00F011
:1024800067F804462CB9FFF7EDFB86202870002082
:10249000F1E7012084F82100A661E76184F820803B
:1024A000C4F80490C4F808A0FFF7DCFB00202870F3
:1024B0002046E0E7E501002010B503480068FFF77B
:1024C0009DFC0446204610BD1002002070B5054654
:1024D0000C462878642803D089202070002070BD25
:1024E0001A48007818B18B2020700020F7E7FFF71A
:1024F00099FB95F82100E8B1012810D002280FD0EF
:1025000003281DD1284600F029F90021284600F0B3
:10251000AFF8FFF7A7FB002020700120DFE700BF26
:102520000021284600F0A4F8FFF79CFB0020207053
:102530000120D4E7FFF796FB872020700020CEE72C
:10254000FFF790FB8D2020700020C8E7E5010020F8
:102550000C48006808B9002070470A480168094A19
:10256000C86810600020C860086107480088401CE7
:10257000054A108005480088401E044A108008461D
:10258000EAE70000140200200602002004020020F6
:102590002DE9F0414FF49071204800F07FFA1021AE
:1025A0001F4800F07BFA002512E0681C86B205EB9C
:1025B000C5001A4901EB800406EBC60001EB800759
:1025C00064202070002084F82100E760681C85B238
:1025D000072DEAD305EBC500104901EB8004642008
:1025E0002070002084F82100E0600E4908600E4948
:1025F000088008200D49088008480D49086001201E
:10260000FFF760FB0B4908600020FFF75BFB0A49FE
:10261000086000F013F8BDE8F0810000F030002001
:1026200010330020080200200602002004020020CF
:10263000140200200C0200201002002000B585B01A
:10264000032000214022084BCDE90132CDE90310DF
:102650004FF6FD700223044AFC3200900348FFF756
:1026600095FC05B000BD000010320020DD260008FA
:1026700070B50B46032580F82150012B05D1154E6E
:10268000C5693668354445610CE085692DB9114E40
:10269000C56936683544456104E00E4E8569366883
:1026A00035444561057D05F001040B4D05EBC40182
:1026B0000D682DB908600025C56001258D8006E0F4
:1026C0000A680860C26010618D886D1C8D800025CD
:1026D000056170BD080200201033002008B500BF5E
:1026E00000BF6A4600211A480068FFF711FBFFF798
:1026F00099FA18480068401C164908600846007896
:1027000000F00108144800EBC8073C681AE0E668CE
:10271000104960690968884213D1204600F01EF80C
:1027200094F82000022804D101212046FFF7A0FFE1
:1027300002E0022084F82100656815B12046A168F6
:10274000A8473446002CE2D1FFF78CFAC9E7000015
:1027500010020020080200201033002030B5057D53
:1027600005F001040D4D05EBC4031D68854205D13C
:10277000C168196039B100250D6104E00169C268C2
:10278000CA6002B11161012580F821500025C560A1
:1027900005619D886D1E9D8030BD000010330020B6
:1027A000704700002DE9F04F05460F4690469946C8
:1027B000A87A19490E5C05F10B00805D11F800B094
:1027C0000BEBC60000F0FF0A144850F82A40002026
:1027D00044F8200F00BF207920EA0800207184F817
:1027E00005902079A4F1200410F0080F0DD194F881
:1027F0002A000B4909780843094908700948805D97
:1028000094F829100843074988552946204600F0C6
:102810000BF85046BDE8F08FA8E90008F42E002020
:10282000E9010020EA01002010B590F8282001F10C
:102830000B039B5C90F82940A34301F10B04A354C4
:1028400023469B5C23B98B7A90F82A40A3438B7272
:1028500010BD000010B51B4A1268D061194A1268F9
:1028600092F8283000F10B02D25C164B1B6893F8EB
:1028700029301A43134B1B6893F8284000F10B03CF
:102880001A55827A0F4B1B6893F82A301A438272CA
:102890000C4A126892F828100B4A525C094B1B68CC
:1028A00093F829309A43084B5A541A46525C42B95D
:1028B000044A126892F82A30044A12789A43034B69
:1028C0001A7010BDF4010020EA010020E901002087
:1028D000014600228A72002005E0002301F10B026C
:1028E0001354421CD0B20328F7D3704770B560214F
:1028F0000E4800F0D3F800230BE0581C85B20B48BB
:1029000000EB031400EB0516002020706660581CD5
:1029100083B2052BF1D3054800EB0314002020708F
:10292000606002480249086070BD0000942C0020DD
:10293000D40100200020094908700949087009499C
:10294000087009490870094908600949086009497F
:10295000086009490860094908707047E5010020CE
:10296000E6010020EE010020ED010020D001002052
:10297000F0010020E0010020DC010020E401002043
:1029800000210A4A1170002004E00021084A115475
:10299000411CC8B20328F8D30021064A1170064A28
:1029A0001170064A1160064A11607047E901002063
:1029B000EA010020E7010020E8010020FC010020DE
:1029C000F401002070B54FF4DC71164800F066F891
:1029D0004421154800F062F8002311E0581CC5B2EC
:1029E00003EB430000EBC3000E4901EB800405EB51
:1029F000450000EBC50001EB80066661581CC3B2C0
:102A0000092BEBD303EB430000EBC300054901EBBB
:102A1000800400206061054908600248044908609C
:102A200070BD0000382F0020F42E0020000200208E
:102A3000F801002000B585B0032000214022084B9A
:102A4000CDE90132CDE903104FF6FF701023044A9F
:102A5000FC3200900348FFF799FA05B000BD000072
:102A6000F42D00205D2C000800B585B00320002166
:102A70004022084BCDE90132CDE903104FF6FE703C
:102A80000F23044AFC3200900348FFF77FFA05B099
:102A900000BD0000F42C00209D2C000804E0002262
:102AA00000F8012B4A1E91B20029F8D170470000AE
:102AB00010B50024FDF782FB044610480078C0B929
:102AC0000F480078A8B900F027F80E480E49097899
:102AD00050F821000D4908600B4800780C4909782E
:102AE000884206D00B480068401C0A490860FDF780
:102AF00080FB2046FDF766FB10BD0000E5010020CD
:102B0000E6010020F42E0020E8010020FC01002056
:102B1000E7010020D00100200649074A1278885CAE
:102B20000649095C034A515C01EBC001044A11707B
:102B300070470000A8E90008E9010020EA01002030
:102B4000E80100202DE9F84F05460E461746984645
:102B5000DDE90BABDDF8289000200090FDF72EFB9F
:102B6000009038480468002C67D054F8140F354999
:102B700008600098FDF726FB44F8146CA57400204B
:102B800020746074E06044F810AC44F8089C44F889
:102B90000C7C24F804BC24F8028CE075E810207545
:102BA00005F00700E074217D01208840A075E17CDC
:102BB0000120884060750020A060A4F11404204624
:102BC000FFF792F9FDF7FAFA00901F4840F8254008
:102BD0000098FDF7F7FA2046FFF734FAFDF7EEFA12
:102BE00000901A48006860610020A06117480068E2
:102BF00010B11648006884611448046004F1280488
:102C0000A0781349097840EA01001149087020783A
:102C10001049085C617840EA010014F828190D4A4F
:102C200050540D48007800F101000B4908700098DD
:102C3000FDF7C8FA0020BDE8F88F0098FDF7C2FA4A
:102C40004220F8E7F8010020F42E002000020020C6
:102C5000E9010020EA010020EE010020002400BF6D
:102C600000BFFDF7ABFA044605480068401C044964
:102C700008602046FDF7A6FAFFF785FAF1E70000A5
:102C8000F001002010B504480068FFF780FAFF202B
:102C9000FFF7DAF910BD0000F401002000BF00BF0B
:102CA00002E0C820FFF73AFB214800780028F8D05E
:102CB000204800686421B0FBF1F01E490860084616
:102CC000006840B900201C49087000BF4FF47A70BA
:102CD000FFF724FBFAE7FDF771FA04461548006890
:102CE00064214843154908602046FDF76BFA00BF90
:102CF000FDF764FA04461148006811490860002095
:102D00000E4908602046FDF75DFA0D480068094944
:102D10000968B0FBF1F0C0F1640007490870FFF7E3
:102D200037FA00F00FF86420FFF7F8FAE0E7000048
:102D3000E4010020DC010020D8010020F001002087
:102D4000E00100207CB500240CE069462046FFF736
:102D500021FA054625B9054850F8246006B100BFA0
:102D6000601CC4B2102CF0D97CBD0000F42E0020F1
:102D700012F0010F08D012F0020F05D002E0491E38
:102D8000002308C00029FAD17047000010B502489E
:102D900003F01AFE10BD0000C816002029B1064A33
:102DA00012680243044B1A6004E0034A126882432B
:102DB000014B1A60704700003038024029B1064AC2
:102DC00012680243044B1A6004E0034A126882430B
:102DD000014B1A60704700003438024029B1064A9E
:102DE00012680243044B1A6004E0034A12688243EB
:102DF000014B1A60704700003838024029B1064A7A
:102E000012680243044B1A6004E0034A12688243CA
:102E1000014B1A60704700004038024029B1064A51
:102E200012680243044B1A6004E0034A12688243AA
:102E3000014B1A607047000044380240F0B5002191
:102E400000220024022500260223324F3F6807F0AB
:102E50000C0121B1042905D0082937D105E02E4FF6
:102E6000076036E02D4F076033E02A4F3F1F3F6871
:102E7000C7F38056274F3F1F3F6807F03F036EB1EF
:102E8000264FB7FBF3F7DFF88CC0ACF1040CDCF88D
:102E900000C0CCF3881C07FB0CF40CE01E4FB7FB02
:102EA000F3F7DFF870C0ACF1040CDCF800C0CCF331
:102EB000881C07FB0CF4174F3F1F3F68C7F30147FF
:102EC0007F1C7D00B4FBF5F7076002E0124F07603E
:102ED00000BF00BF0F4F3F6807F0F0010909104F16
:102EE0007A5C0768D74047600A4F3F6807F4E051B3
:102EF000890A0B4F7A5C4768D7408760054F3F6867
:102F000007F46041490B064F7A5C4768D740C760B9
:102F1000F0BD0000083802400024F40040787D0134
:102F2000F0000020002107E0002200E0521C40F6E3
:102F300092139A42FAD3491C8142F5D3704700009C
:102F400004480068401C0349086008464068401C6B
:102F500048607047C40100200548006830B104484B
:102F60000068401E02490860012070470020FCE70D
:102F7000C40100200146024A5268501A70470000FE
:102F8000C40100200146044A52680B68D01A024A64
:102F900052680A6070470000C4010020FCB5054675
:102FA0000C460023052A01D90020FCBD00BF0A20E1
:102FB00094FBF0F100FB1140C7B2384600F02AF84C
:102FC0000DF80300581CC3B20A2C00DA04E00A20F2
:102FD00094FBF0F084B2EAE700BF02B91A469342CC
:102FE00001DB134607E004E030200DF80300581C15
:102FF000C3B29342F8DB0DEB0206761E134605E0E2
:1030000016F8010905F8010B501EC2B2002AF7DCC0
:103010001846CAE7014601F00F010A2903DA01F157
:103020003000C0B2704701F13700C0B2FAE70A467B
:103030000BE00178612905DB7A2903DCA1F120038B
:10304000D9B20170401C531E9AB2002AF1DC7047BD
:1030500070B51C213E48FDF722F900F01FF908B9B0
:10306000002070BD3A4A51785068FFF7E0FF002415
:1030700065E0384901EB04110868FDF739F9344976
:10308000497888421ED0E4B931484078042818D1E4
:1030900000BF304901EB04110868FDF729F9064625
:1030A0002C4800EB0410324601682BA0FDF7EAFA29
:1030B00000BF00BF26484278417827A0FDF7E2FA1A
:1030C00000BF3AE0224B5A78224B03EB04131968F5
:1030D0001F4B5868FDF713F900282DD11C48806854
:1030E00000783F280AD100BF1A4800EB0410C168DD
:1030F0001EA0FDF7C7FA00BF0120B2E7154901EB9A
:103100000411087A00F08CF808B90020A9E71148EA
:1031100000EB0410456845B100BF0D484278416896
:1031200015A0FDF7AFFA00BFA84700BF17A0FDF735
:10313000A9FA00BF012094E700BF601C84B2052CEF
:1031400097D300BF16A0FDF79DFA00BF002088E7C7
:10315000782C002058E900083A3E546970733A49C7
:103160006E7075745B25535D000000003A3E546933
:1031700070733A25730000003A3ED6B4D0D0D6B86A
:10318000C1EE3A256D2E2E2E0A0000003A3EC3FCF9
:10319000C1EED6B4D0D0CDEAB1CF210A0A000000EA
:1031A0000A3A3ECEDEB7A8CAB6B1F0B5C4D6B8C1A9
:1031B000EE210A0A0000000070B5044600200EE06F
:1031C00014F8016B8E4204D1012A00D108E0551E8B
:1031D000EAB203B904E0451CA8B25D1EABB2EFE74A
:1031E00000BF70BD70B505460E4600240EE0FCF72A
:1031F000E5FF0446FEF7C2FC08480068FEF7FEFD46
:10320000FEF7CEFC2046FCF7DDFF70BD032001F089
:10321000C7FB0028EBD100BFF7E7000068000020E3
:1032200010B504460B480078A04211DD094800782B
:10323000A04205DD00BF214607A0FDF723FA05E007
:1032400000BF21460DA0FDF71DFA00BF002010BDF4
:103250000120FCE7782C00203A3E546970733AB4A0
:10326000CBC3FCC1EED6BBC4DCB4F820256F20B8BC
:10327000F6B2CECAFD212121000000003A3E546979
:1032800070733AB4CBC3FCC1EED0E8D2AA20256F4C
:1032900020B8F6B2CECAFD21212100002DE9F0416F
:1032A0003E48FDF767FD054615B90020BDE8F081F1
:1032B00001263B483B4948600846406800780A2898
:1032C00004D00846406800780D2806D1354840688B
:1032D000401C34494860681E85B20020314908709E
:1032E0002B46324648682021FFF766FF04462D49E9
:1032F0004C70AC4206D100BF2BA0FDF7C3F900BF54
:103300000120D3E7701CC6B23EE026484068005D4D
:10331000202802D1601C84B236E02746214840684C
:10332000011920480278083040F822101D492B4628
:10333000324648682021FFF73FFF0446E01BC1B238
:10334000184802781830815400BF183890F800C02F
:10335000183010F80C30183890F800C0083050F8C9
:103360002C2008380078411C10A0FDF78BF900BF15
:103370000C480078401C0B49087008460078042867
:1033800000DB03E0701CC6B2AC42BED100BF00BF80
:1033900005A0FDF777F900BF012087E76C2C00201E
:1033A000082C0020782C00200A0000003A3EB5DAF4
:1033B000256CB8F6B2CECAFD3A256D203B20000040
:1033C00010B50248FDF7EAFC10BD00006C2C00208F
:1033D00070B546E0032001F0D3FA0446082C20D152
:1033E0002348FDF7C7FC012804D100BF21A0FDF749
:1033F00049F900BF1E48FDF7C3FC1D48FDF7BAFCA4
:1034000001282EDB00BF1A48FDF7B4FC054618481A
:10341000FDF7C7FC06462A4631461AA0FDF732F9E9
:103420001FE00D2C09D100BF1BA0FDF72BF900BF39
:10343000FFF70EFEFFF7C4FF13E021460C48FDF72F
:10344000B3FC0B48FDF796FC012804D100BF13A084
:10345000FDF718F900BF00BF214614A0FDF712F9CF
:1034600000BF032001F09CFA0028B3D170BD00001A
:103470006C2C00200A20203A3CB5B1C7B0C3FCC177
:10348000EE3A00000A20203A3CB5B1C7B0C3FCC1F7
:10349000EE3A256D000000000A0000000A2020B569
:1034A000B1C7B0C3FCC1EE3A3E0000002563000086
:1034B0001FB564220D490E48FDF743FC03A80DA17A
:1034C0000022104BCDE90021029002221146642017
:1034D000FEF7C2FF044624B900BF0BA0FDF7D2F8E7
:1034E00003E003A92046FEF7F1FF1FBD082C0020D2
:1034F0006C2C00205348454C4C5F4D6F6E69746FC7
:1035000072000000E53100080A205368656C6C3ECB
:10351000202043726561746554696D657220204690
:1035200061696C6564212121213E0A00F0B58FB0EC
:1035300000200E900D901822FAA107A8FCF796FE25
:103540001822FEA101A8FCF791FE1426FDF7ACFE9F
:10355000FEF74FF8052006F0BDFC0020FEF708FA44
:103560000E900E9898B140F6FF710E9888420ED3D7
:103570000E98A0F5094189390CD00E98A0F5134199
:10358000203907D00E98A0F51341253902D048F60E
:1035900089100E90EF490E9808800E98A0F51341FF
:1035A00020397CD14FF40041E520FEF760FA01217B
:1035B0000020FEF75CFA4FF480710120FEF757FA05
:1035C0004FF4E0610220FEF752FA41F2300103208D
:1035D000FEF74DFA00210420FEF749FA40F20221DD
:1035E0000820FEF744FA00210920FEF740FA0021E6
:1035F0000A20FEF73CFA00210C20FEF738FA0021E1
:103600000D20FEF734FA00210F20FEF730FA0021DA
:103610001020FEF72CFA00211120FEF728FA0021D5
:103620001220FEF724FA00211320FEF720FA1420BE
:1036300006F050FC41F2B0711020FEF718FA40F28B
:1036400037111120FEF713FA052006F043FC40F273
:1036500039111220FEF70BFA052006F03BFC4FF45F
:10366000E8511320FEF703FA13212920FEF7FFF992
:10367000052006F02FFC00212020FEF7F8F900219C
:103680002120FEF7F4F906213020FEF7F0F940F290
:1036900001113120FEF7EBF90321322000E07DE03B
:1036A000FEF7E5F94FF483713520FEF7E0F940F6B7
:1036B00002313620FEF7DBF940F202313720FEF707
:1036C000D6F940F207713820FEF7D1F907213920E9
:1036D000FEF7CDF94FF4C0613C20FEF7C8F940F287
:1036E0000B213D20FEF7C3F900215020FEF7BFF962
:1036F000EF215120FEF7BBF900215220FEF7B7F968
:1037000040F23F115320FEF7B2F94FF41C516020F4
:10371000FEF7ADF901216120FEF7A9F900216A2029
:10372000FEF7A5F900218020FEF7A1F900218120F4
:10373000FEF79DF900218220FEF799F900218320F0
:10374000FEF795F900218420FEF791F900218520EC
:10375000FEF78DF910219020FEF789F900219220C3
:10376000FEF785F903219320FEF781F94FF4887164
:103770009520FEF77CF900219720FEF778F90021CB
:103780009820FEF774F941F218010320FEF76FF953
:1037900040F273110720FEF76AF9E2E10E98A0F5F6
:1037A000094189397DD101210020FEF760F900210E
:1037B0001020FEF75CF9052006F08CFB40F2332167
:1037C0000720FEF754F946F278011120FEF74FF971
:1037D0004FF4C0610220FEF74AF94AF6A401032023
:1037E000FEF745F900210C20FEF741F940F60C01E7
:1037F0000D20FEF73CF94FF424510E20FEF737F967
:10380000B8211E20FEF733F942F63F110120FEF7E2
:103810002EF900211020FEF72AF900210520FEF7DD
:1038200026F900210620FEF722F94EF61C7116201B
:10383000FEF71DF903211720FEF719F940F2332195
:103840000720FEF714F9C0210B20FEF710F9002124
:103850000F20FEF70CF900214120FEF708F90021A6
:103860004220FEF704F900214820FEF700F940F25B
:103870003F114920FEF7FBF800214A20FEF7F7F838
:1038800000214B20FEF7F3F84FF46F414420FEF780
:10389000EEF800214520FEF7EAF840F23F114620FD
:1038A00000E064E0FEF7E3F840F207713020FEF735
:1038B000DEF84FF401713120FEF7D9F84FF40171B1
:1038C0003220FEF7D4F840F202513320FEF7CFF851
:1038D00040F207513420FEF7CAF84FF40171352049
:1038E000FEF7C5F84FF401713620FEF7C0F840F23C
:1038F00002513720FEF7BBF840F202313A20FEF7C2
:10390000B6F840F202313B20FEF7B1F80021232047
:10391000FEF7ADF800212420FEF7A9F84FF400418E
:10392000252019E020207777772E61726D6A697300
:1039300068752E636F6D202000000000204C43440A
:1039400020535344313238392C49443839383920DE
:103950000000000060010020FEF789F800214E20E1
:10396000FEF785F800214F20FEF781F8F9E00E9868
:10397000A0F513412539F9D101210020FEF777F890
:103980004FF480710120FEF772F84FF4E0610220DD
:10399000FEF76DF841F218010320FEF768F80021E8
:1039A0000420FEF764F840F202210820FEF75FF8D9
:1039B00000210920FEF75BF800210A20FEF757F8E6
:1039C00000210C20FEF753F800210D20FEF74FF8E0
:1039D00000210F20FEF74BF800211020FEF747F8DA
:1039E00000211120FEF743F800211220FEF73FF8D6
:1039F00000211320FEF73BF8142006F06BFA41F289
:103A0000B0711020FEF733F840F237111120FEF7A5
:103A10002EF8052006F05EFA40F239111220FEF76A
:103A200026F8052006F056FA4FF4E8511320FEF769
:103A30001EF813212920FEF71AF8052006F04AFA8D
:103A400000212020FEF713F800212120FEF70FF8B7
:103A500007213020FEF70BF840F202313120FEF74B
:103A600006F840F205113220FEF701F840F2062177
:103A70003520FDF7FCFF40F608013620FDF7F7FF83
:103A800040F206213720FDF7F2FF40F204513820C2
:103A9000FDF7EDFF07213920FDF7E9FF40F20511A1
:103AA0003C20FDF7E4FF40F608013D20FDF7DFFF75
:103AB00000215020FDF7DBFFEF215120FDF7D7FF5C
:103AC00000215220FDF7D3FF40F23F115320FDF7B4
:103AD000CEFF4FF427416020FDF7C9FF012161208F
:103AE000FDF7C5FF00216A20FDF7C1FF00218020FE
:103AF000FDF7BDFF00218120FDF7B9FF00218220E5
:103B0000FDF7B5FF00218320FDF7B1FF00218420E0
:103B1000FDF7ADFF00218520FDF7A9FF10219020C2
:103B2000FDF7A5FF00219220FDF7A1FF03219320BF
:103B3000FDF79DFF4FF488719520FDF798FF002158
:103B40009720FDF794FF00219820FDF790FF41F2A8
:103B500008010320FDF78BFF40F233110720FDF72A
:103B600086FF2C48FDF752FF4FF478414FF6E07086
:103B7000FDF70CFFF0224FF4A07127A007F01FFD06
:103B80004FF4FC60FDF766FBFDF778FD0027384633
:103B9000FDF776FC1F4989887143C1F5A07000EBE1
:103BA000D071C1F34F05002411E0FDF767FDC08817
:103BB00000EBC00087B207A8025D1648808800FBB2
:103BC000045081B23846FDF721FC601CC4B2B442F7
:103BD000EBDB20480088A0F50941893914D1002485
:103BE00010E0FDF74BFDC0888004070C01A8025DC2
:103BF0000848808800FB045081B23846FDF706FC77
:103C0000601CC4B2B442ECDB4FF4827006F062F97F
:103C10000FB0F0BD3C0100200A0D202323232323F5
:103C200023204C43445F504958454C5F5749445406
:103C3000482025643B204C43445F504958454C5F25
:103C40004845494748542025642E20232323232315
:103C500023200000600100207CB504460D462D495C
:103C600051F824102C4A52F8242041EA0200012184
:103C7000FFF794F834B9294951F824000121FFF7DE
:103C8000CDF805E0254951F824000121FFF7B6F8E9
:103C9000234B1A5D234B195D234B53F82400FDF78A
:103CA00065F9224B1A5D224B195D224B53F8240013
:103CB000FDF75CF900208DF8060001208DF8070063
:103CC00002208DF804001C4830F8140000900220F7
:103CD0008DF80500144951F824006946FDF7FEF8F7
:103CE00002208DF80400154830F8140000901149A6
:103CF00051F824006946FDF7F1F8114951F8240004
:103D0000294600F0D9FC0E4951F82400012100F0A9
:103D100095FC7CBDFCB8000804B90008F4B80008A4
:103D200018B9000814B90008280100201AB90008C1
:103D300016B90008300100200CB9000810B90008BD
:103D4000200100201CB504460E4951F82400012131
:103D5000FFF724F80C4830F81400009001208DF88B
:103D6000040000208DF8060001208DF807000220D5
:103D70008DF80500054951F824006946FDF7AEF8B5
:103D80001CBD0000B8B80008B0B800080001002051
:103D9000064951F820104969054A32F8102051406F
:103DA000024A52F8202051617047000000010020B3
:103DB000B0B8000810B50446044A32F81410044A9A
:103DC00052F82400FDF7F5F810BD0000C8B800084F
:103DD0001001002030B585B004460D46204951F849
:103DE00024000121FEF7DAFF01218803FFF716F80E
:103DF00000208DF810008DF813001A4830F81400D8
:103E00000390194951F8240003A9FDF767F8012D23
:103E100024D1164A115D164A105D00F031F815489C
:103E200030F81400019000208DF808000C208DF867
:103E3000090001208DF80A0001A8FCF789FD0E4851
:103E4000005D8DF800000F208DF801008DF8020054
:103E500001208DF803006846FDF712FE05B030BD65
:103E6000D0B80008C8B8000810010020ECB800085D
:103E7000E8B80008E0B80008F0B800087047000093
:103E800030B500228B071C0F0F2303FA04F20B4BF3
:103E90008C1053F824309343084C8D1044F825308F
:103EA00023468C1053F824308C07240F00FA04F4B6
:103EB0002343024C8D1044F8253030BD08380140B2
:103EC0000CB50020019000902D48006840F480302F
:103ED0002B49086000BF2A48006800F400300090B9
:103EE0000198401C0190009818B90198B0F5A06F96
:103EF000F1D12348006810F4003F02D00120009067
:103F000001E0002000900098012837D11C480830BB
:103F100000681B49083108600846006840F400400A
:103F200008600846006840F4A05008601548091F62
:103F30000860081F006840F08070091F086000BF1B
:103F40000F48006810F0007FFAD040F203700E496D
:103F500008600B480830006820F003000849083169
:103F600008600846006840F00200086000BF04488E
:103F70000830006800F00C000828F8D10CBD0000E3
:103F800000380240193C4005003C02402DE9F84F42
:103F9000002400200090002500276B464FF400729B
:103FA00079497A4806F0D0FB8146494678A007F067
:103FB00006FB7548807C7449C97C40EA012672483A
:103FC000807D7149C97D40EA01284246314677A08B
:103FD00007F0F5FA6C48007F6B49497F40EA012AF7
:103FE00051467DA007F0EBFA3621684806F0BDF98E
:103FF000B6F5A07F02DCB8F5A07F07DD7EA007F054
:10400000DEFA83A0FDF7C0FBBDE8F88FBAF1180F08
:1040100064D15DE06B464FF4FF725B495B4806F08C
:1040200093FB8146BDF8000010B1B9F1000F00D03C
:1040300053E0464524DA00241DE05349A01C085CE7
:1040400000F0F8000102504B601C185C00F0FC000E
:1040500041EAC0001946095D40EAE10239462846B6
:10406000FDF7DAFC681C85B2B54202DB0025781C3E
:1040700087B2E01C84B2BDF80000844228DADCE795
:10408000002421E0404BA11C595C01F0F8010B0217
:10409000DFF8F4C0611C1CF8011001F0FC0143EAD8
:1040A000C10163461B5D41EAE302C5F1EF0188B23D
:1040B0003946FDF7B1FC781C87B2B74202DB002716
:1040C000681C85B2E01C84B2BDF800008442D9DBD4
:1040D0005548FCF7C5FF00289CD152E0BAF1100FFB
:1040E0004FD148E06B464FF400722749274806F04D
:1040F0002BFB8146BDF8000010B1B9F1000F00D0D4
:104100003EE046451ADA002413E01F48015D0346ED
:10411000601C185C41EA002239462846FDF77CFC09
:10412000681C85B2B54202DB0025781C87B2A01C52
:1041300084B2BDF8000084421DDAE6E7002416E0F0
:1041400011490B5D8C46611C1CF8011043EA0122E9
:10415000C5F1EF0188B23946FDF75EFC781C87B2E5
:10416000B74202DB0027681C85B2A01C84B2BDF8F0
:1041700000008442E4DB2C48FCF772FF0028B1D138
:1041800000BF00BF40E70000C8070020A4050020D2
:104190000A20665F726561642066696C65207265DD
:1041A0007475726E2069732025642E000A20506990
:1041B0006374757265576964746820697320256437
:1041C0002C2050696374757265486569676874204E
:1041D00069732025642E00000A205069637475728B
:1041E0006542697473506572506978656C206973B3
:1041F0002025646270702E000A2050696374757205
:104200006520746F6F204C617267652E000000009E
:10421000205069637475726520746F6F204C6172F1
:1042200067652E2E00000000C816002010B5FDF7AF
:10423000A5FCFEF7AFF8FDF7B3FCFEF781FE10BD5D
:1042400070B500200022022300240221274D2D6892
:1042500005F00C0020B1042806D0082834D107E06E
:10426000234D244E356033E0234D224E35602FE040
:104270001E4D2D1F2D68C5F380541C4D2D1F2D681C
:1042800005F03F0154B11C4DB5FBF1F5174E361F3B
:104290003668C6F3881605FB06F209E0144DB5FB37
:1042A000F1F5124E361F3668C6F3881605FB06F286
:1042B0000E4D2D1F2D68C5F301456D1C6B00B2FB23
:1042C000F3F50C4E356003E0094D0A4E356000BF32
:1042D00000BF064D2D68C5F30315084E705D054DF2
:1042E0002D68C540034E356070BD0000083802409F
:1042F0000024F400DC00002040787D01E000002074
:1043000010B51248006840F0010010490860002014
:104310000E49083108600D4800680D4908400B49F6
:1043200008600C48091D0860081F006820F4802000
:10433000091F0860002005490C310860FFF7C0FD27
:104340004FF000600449086010BD000000380240D2
:10435000FFFFF6FE1030002408ED00E010B503F07A
:104360001FFC10BD21B1028842F08002028004E0EF
:1043700002884FF67F731A4002807047CA43028258
:10438000704721B1028842F00102028004E00288F5
:104390004FF6FE731A400280704730B50246002087
:1043A00000230024158A05EA0103958905EA010422
:1043B00013B10CB1012000E0002030BD1AB1838997
:1043C0000B43838102E083898B4383817047000024
:1043D00000220288184B98420ED0184B98420BD0FE
:1043E000B0F1804F08D0164B984205D0154B98423B
:1043F00002D0154B984204D14FF68F731A404B8868
:104400001A43124B984207D0114B984204D04FF6F2
:10441000FF431A400B891A4302804B68C3620B8822
:104420000385054B984202D0044B984201D18B7A08
:10443000038601238382704700000140000401408D
:104440000004004000080040000C00400010004044
:104450000014004010B50C4801680068401C0A4A6E
:104460001060B1F5803F0ED10020FFF791FC0120D4
:10447000FFF78EFC0220FFF78BFC0320FFF788FC80
:1044800000200149086010BD5800002008B51F48F1
:1044900000881F4908800846007810F00F0F07D0E9
:1044A0001A488088C0B2009018480088088008BD6B
:1044B0001748007810F0200F11D014488088C0B23F
:1044C00000909DF800101348FCF71CFC38B9114807
:1044D000FCF7ACFB9DF800100E48FCF713FC0C48F1
:1044E000007810F0800F0FD00120FCF7A7FB58B91F
:1044F00008484438C06A20F0010006494439C862BF
:104500000021024800F046F900BFD0E7001001404A
:10451000BE010020D426002008B52048008820498C
:1045200008800846007810F00F0F08D01B48001DC7
:104530000088C0B2009019480088088008BD18485B
:10454000007810F0200F12D01448001D0088C0B26F
:1045500000909DF800101348FCF7D4FB38B91148BF
:10456000FCF764FB9DF800100E48FCF7CBFB0C48F1
:10457000007810F0800F0FD00220FCF75FFB58B9D5
:1045800008487038806D20F0010006497039886550
:104590000021024800F0FEF800BFCFE700440040D1
:1045A000C00100200027002008B5214800882149CB
:1045B00008800846007810F00F0F08D01C48001D36
:1045C0000088C0B200901A480088088008BD1948C9
:1045D000007810F0200F12D01548001D0088C0B2DE
:1045E00000909DF800101448FCF78CFB38B9124875
:1045F000FCF71CFB9DF800100F48FCF783FB0D48EF
:10460000007810F0800F11D00320FCF717FB68B979
:1046100009489C38D0F8840020F0010006499C39F4
:10462000C1F884000021024800F0B4F800BFCDE7D3
:1046300000480040C20100202C27002021B18289BF
:1046400042F40052828104E082894DF6FF731A40E1
:104650008281704702460020B1F5007F00D100BF83
:1046600013880B4201D0012000E000207047F0B514
:1046700003460024002600250020A1F510676A3FAC
:1046800000D100BF1846C1F3421401F01F060127F4
:1046900007FA06F5012C01D10C3004E0022C01D1FF
:1046A000103000E014301AB107682F43076002E0B1
:1046B0000768AF430760F0BD2DE9FF4705460E468A
:1046C0000024A14600BFA046B08900B100BF2C8ADB
:1046D00024F44054F08804432C82AC8941F20C60ED
:1046E0008443B08831890843718908430443AC810D
:1046F000AC8A24F44074B0890443AC826846FEF767
:104700009DFB2048854202D01F48854202D1DDF83A
:104710000C9001E0DDF80890A88910F4004F08D053
:1047200009EBC90000EB091031684900B0FBF1F753
:1047300007E009EBC90000EB091031688900B0FB04
:10474000F1F76420B7FBF0F004012009642101FBBC
:104750001078A88910F4004F08D0322000EBC80070
:10476000B0FBF1F000F00700044308E0322000EB5A
:1047700008106421B0FBF1F000F00F0004432C811D
:10478000BDE8FF870010014000140140C1F308029A
:104790008280704721B1828942F08002828104E0E8
:1047A00082894FF67F731A408281704710B50446A4
:1047B000042C01DB002010BD04EB440101EBC4011B
:1047C000104A02EB8101081D4FF480620E49FCF78C
:1047D00006FA04EB440101EBC4010A4A02EB810131
:1047E00001F11800C8220949FCF7F9F908A0FBF704
:1047F00049FF15A11AA0FBF745FFC820FEF792FB61
:104800000120D8E79026002040270020402B0020E0
:104810000A0A0A2A2A2A2A2A2A2A2A2A2A2A2A2A58
:104820002A2A2A2A2A2A2A2A2A2A2A2A2A2A2A2AE8
:104830002A2A2A2A2A2A2A2A2A2A2A2A2A2A2A2AD8
:104840002A2A2A2A2A0A00004F6374203231203291
:104850003031352031333A34343A343500000000F9
:10486000C8EDBCFEB1E0D2EBCAB1BCE43A25730A94
:104870000A00000070B504460D4604EB440101EB4C
:10488000C401144A02EB8101081D2946FCF73AFADB
:10489000E8B104EB440000EBC4000E4911F820001D
:1048A00010F0010F11D104EB440000EBC40051F8EB
:1048B000200040F0010004EB440101EBC401054A73
:1048C00042F821002046FCF7B9F9012070BD002014
:1048D000FCE700009026002070B505460C4620112C
:1048E000FEF798FB064631462846FFF7C3FF2046F1
:1048F000FEF790FB064631462846FFF7BBFF202116
:104900002846FFF7B7FF70BD2DE9F04107460C467A
:104910001546002606E014F8011B3846FFF7AAFFEB
:10492000701C86B2AE42F6DBBDE8F08170B506467B
:104930000C46154606E014F8011B3046FFF7CCFF85
:10494000681E85B2002DF6DC70BD70B505460C46BC
:1049500011E020780A2809D10D212846FFF78AFFA7
:104960000A212846FFF786FF641C04E014F8011BA7
:104970002846FFF77FFF20780028EAD170BD0000AD
:1049800010B5044604EB440101EBC401034A02EBF9
:10499000810101F11800FCF72DF910BD90260020CF
:1049A00000B5024602EB420101EBC201054B03EBED
:1049B000810101F11800FCF70BF908B9012000BDD5
:1049C0000020FCE79026002070B505460C460A2C16
:1049D00008D10D212846FFF74DFF0A212846FFF791
:1049E00049FF03E021462846FFF744FF70BD70B53C
:1049F00005460E46284600F081FD0446A4F57F409A
:104A0000FF3805D046F4004105F28C5020F8141010
:104A1000E0B270BD2DE9F04105460E4617461C4632
:104A2000012105F56B7000EB4410817005F56B708A
:104A300000EB4410C66005F56B7000EB4410076195
:104A400005F56B7000EB4410007E30B9002105F5D0
:104A50006B7000EB4410017205E0022105F56B70EC
:104A600000EB4410017221462846FCF704FB0020AD
:104A7000BDE8F0812DE9F04105460E4617461C467B
:104A8000002105F56B7000EB4410817005F56B702B
:104A900000EB4410C66005F56B7000EB4410076135
:104AA00005F56B7000EB4410407E28B905F56B707E
:104AB00000EB4410017205E0022105F56B7000EB7C
:104AC0004410017221462846FCF7D5FA0020BDE8C3
:104AD000F0812DE9F04105460C4616461F4602219D
:104AE0002175012161750021E1822683618306F031
:104AF0008000802805D105F56B7000EB471001762A
:104B000005E0002105F56B7000EB471041760023AE
:104B10001A462146284600F02BF8BDE8F0810146F0
:104B20000122C1F81023002070472DE9F04105460D
:104B30000E4617461C46012105F56B7000EB44102C
:104B40008170022105F56B7000EB4410017205F5D0
:104B50006B7000EB4410C66005F56B7000EB441001
:104B6000076121462846FCF786FA0020BDE8F0815F
:104B70002DE9F04180460C4616461D460127E07897
:104B8000012802D0022826D108E02A4631462046D4
:104B900002F001FA0220E07001271DE0207D2128AB
:104BA00000D10A25207F0D2807D10120E0700021C7
:104BB0002177002705B90A250CE0207F0B2803D1B7
:104BC0000120E070022705E0207F0C2802D101209F
:104BD000E070032700E000BF00BF3846BDE8F08169
:104BE0002DE9F04105460F4616461C46002105F505
:104BF0006B7000EB4410817005F56B7000EB441096
:104C0000C76005F56B7000EB441006612EB90121F9
:104C100005F56B7000EB4410417605F56B7000EB09
:104C20004410407E30B9002105F56B7000EB441054
:104C3000017205E0022105F56B7000EB4410017272
:104C400021462846FCF717FA0020BDE8F08170B530
:104C500005460E461446002105F56B7000EB441026
:104C60008170032105F56B7000EB4410017205F5AE
:104C70006B7000EB4410C660082105F56B7000EB0B
:104C80004410016121462846FCF7F5F9C0B270BD19
:104C90002DE9F04104460F4616460025002104F593
:104CA0006B7000EB4510817004F56B7000EB4510E4
:104CB000C76004F56B7000EB451006612EB9012149
:104CC00004F56B7000EB4510417604F56B7000EB5A
:104CD0004510407E30B9002104F56B7000EB4510A3
:104CE000017205E0022104F56B7000EB45100172C2
:104CF00029462046FCF7BFF90020BDE8F0812DE9E8
:104D0000F04104460E4617460025002104F56B705D
:104D100000EB45108170032104F56B7000EB45102A
:104D2000017204F56B7000EB4510C66004F56B7002
:104D300000EB4510076129462046FCF79CF9C0B2FC
:104D4000BDE8F08130B504460A460120012330BD9C
:104D50002DE9F04105460E4617463148407860B9C6
:104D600030480660304807602D484078401C2C4988
:104D70004870012185F8C5134FE000212846FCF753
:104D800034F90446012C2CD100202549C86126485D
:104D90000068402814D94022224801682846FFF7BD
:104DA00077FF20480068214908601E4800684030AD
:104DB0001C4908601C48006840381B4908602CE00A
:104DC0001948006810B90020BDE8F0811648026853
:104DD000144801682846FFF75BFF0020124908606D
:104DE0001BE0022C15D10F48006810490968884261
:104DF00008D00C480068A0F1400140222846FFF787
:104E000047FF0AE04022074801682846FFF740FFB5
:104E100003E0042C01D10220D6E70120D4E70000F2
:104E200070260020A0010020A8010020A40100207D
:104E300010B503460A46002010BD70472DE9FC411D
:104E400004460E4635460127BF49086900F070FA4E
:104E500010B93846BDE8FC81BB481030FEF792F827
:104E600095F84400012870D195F8450001286DD1CE
:104E7000B54800780C286AD005DC58B10A2816D04D
:104E80000B286ED17BE00D286CD014286BD01E2827
:104E9000F7D130E14FF48050AB49488000204860A2
:104EA0008860AA480068C8600A2008703AE10621B4
:104EB00004F5887000230322CDE900013146204625
:104EC00000F06FFA002859D104F58871A04800F06D
:104ED00063FA9F480078002829D19D4800790B2863
:104EE00023D2DFE800F006220708090A2222102256
:104EF0001E0000BF00BF00BF00BF93480078401CE9
:104F00009149087012E000BF92A006F058FB00BF64
:104F100000BF9AA006F053FB00BF14208A49087016
:104F200004E01E208849087000E000BF26E000BFB2
:104F3000874801789BA006F042FB00BF84480078B8
:104F4000012805D0022818D10EE0F0E0EBE065E082
:104F500000BF9EA006F033FB00BF14207A49087002
:104F60000BE0DEE0AEE0D7E000BFA64806F027FB8E
:104F700000BF14207449087000BF00BFD2E00121B7
:104F800004F5887000230522CDE900013146204652
:104F900000F007FA002840D194F810016C4908711C
:104FA00008460079801E09282ED2DFE800F0051699
:104FB0002D101A2D2D2D230000BF93A006F0FFFA0F
:104FC00000BF61480078401C5F49087024E05E48DB
:104FD0000078401C5C4908701EE00A205A4908709D
:104FE0001AE00A205849087000BF8DA006F0E7FAC1
:104FF00000BF11E01E205449087000BF81485430A2
:1050000006F0DDFA00BF07E000BF514801798CA02F
:1050100006F0D5FA00BF00BF00BF83E0012093492E
:10502000487049480079887047488088000AC870ED
:105030004548C06844498968401A000B02D04FF4C3
:10504000805006E0404880893F490989401AC0F3F2
:105050000B003D49488008468078844988713A4869
:105060004088000AC87100BF082281A006F0A7FA94
:1050700000BF00BF34488368C268416883A006F05F
:105080009EFA00BF082279492046FFF738FEC0B9D2
:105090002D480078401C2C49087008464068401C88
:1050A0004860002048700846408838B900BF86A094
:1050B00006F085FA00BF0B2023490870022000F09B
:1050C00087F92FE0204842888068874B1B68C11809
:1050D0002046FFF73DFE68B91B4880681A49498899
:1050E0000844194988600B20087000BF7FA006F0B3
:1050F00066FA00BF16E0012104F58870002304223F
:10510000CDE900013146204600F068F918B90A20BF
:105110000D49087006E000BF002700200A4908700A
:1051200000E000BF00BF00207F49087009E07F4811
:10513000FDF728FFB0F57A7F03D3D5F88C10086C03
:105140008047384686E60000702600207C0100205B
:10515000B80100203C3C3A4446553A204446555F4D
:105160004446555F4D414E49464553545F5741496A
:10517000545F52455345540A000000003C3C3A44F9
:1051800046553A204446552053656E642053756356
:105190006365736564205265616C79212121212149
:1051A0000A0000003C3C3A4446553A20496E697476
:1051B0002045727221204466755F41636B2E4572F3
:1051C000725374617475733D25640A003C3C3A4423
:1051D00046553A2046696C65206973206E6F7420CD
:1051E000746172676574656420666F72207573659B
:1051F0002062792074686973206465766963650A42
:1052000000000000BCE800083C3C3A4446553A2007
:105210004446555F4446555F49444C450A000000EA
:105220003C3C3A4446553A204446555F4446555F17
:105230004D414E49464553545F53594E430A000071
:105240003C3C3A4446553A20444655204E6F742023
:1052500049646C6521204466755F41636B2E52750D
:105260006E53746174653D25640A0000940100204A
:105270003C3C3A4446553A204446555F53656E647B
:1052800020436D643A5B25685D0000002020496E74
:105290006465784F665061636B65743D256C3B2097
:1052A0004446552E53697A654F6642696E203D200B
:1052B0005B25785D3B204446552E4F6666736574CA
:1052C0003D5B25785D0A00003C3C3A4446553A2057
:1052D0004446552053656E6420537563636573655A
:1052E0006421212121210A00780100203C3C3A441C
:1052F00046553A204446552053656E64206F6E65CE
:10530000207061636B656420616C72656164792AE9
:105310002A2A2A2A2A2A2A2A2A2A2A2A2A2A2A2AED
:105320002A2A2A2A2A0A000080010020AC01002033
:1053300070B506461548D0F8010030F07F4006D021
:105340001248D0F8010020F07F40401C00E000200F
:1053500005460F48FDF716FE04463CB10D4840696E
:1053600020B10C484069401E0A494861094840691B
:1053700008B1002070BD25B13046FDF7FBFDA84205
:1053800001D30120F6E70020F4E70000B801002077
:105390009C010020702600200A6802608A888280B2
:1053A00070472DE9F04780460C4615461E46DDE95C
:1053B0000897A12121756575E68200212183678305
:1053C0003B464A4621464046FFF7D2FBBDE8F08700
:1053D0000149486170470000702600202DE9F04720
:1053E00080460C4615461E46DDE9089721212175A9
:1053F0006575E6820021218367833B464A46214644
:105400004046FFF7B5FBBDE8F0870246022106E003
:10541000002302F28C5020F81130481CC1B2082938
:10542000F6DB0020704770B505460C460020207062
:105430006070A0700120E070012121774021A171EE
:10544000002084F8200001212120015521792846DF
:1054500000F023F86179284600F01FF8002070BDA5
:1054600001460022C1F810230020704770B50446A1
:105470000D46052D01D0042D06D1D4F88C10486CB2
:1054800080470B20207007E0062D05D10B202070EF
:10549000D4F88C100868804770BD0246082909DAE4
:1054A00002F28C5030F81100C0F30E0302F28C505F
:1054B00020F81130002070472DE9F04780460C4657
:1054C00016461D46DDE9089746F080012175062144
:1054D0006175E58205F47F40B0F5407F03D140F26D
:1054E0000941218301E00021218367833B464A462D
:1054F00021464046FFF73CFBBDE8F087024600210D
:1055000000BF0AE002F28C5030F8110010F4004F96
:1055100001D108467047481CC1B20829F2DB4FF69A
:10552000FF70F7E710B502460B88147823440B8010
:105530001378981810BD00002DE9FC4105460C4673
:105540001646002705F588704FF4007300222146A7
:10555000CDE900062846FFF7AFFF5FEA000817D144
:1055600006E005F58870C05D0B49C855781C87B208
:10557000B742F6DB05F5887004F1500304F17A02B6
:1055800004F13E01CDE9000604F1340001F0BEFA59
:105590004046BDE8FC810000041D00202DE9FC41CF
:1055A00004460D46164604F588704FF480730022B9
:1055B0002946CDE900062046FFF77EFF070006D109
:1055C000324604F5887105F1220001F041FB3846AE
:1055D000BDE8FC812DE9FC470446884615461E4679
:1055E0000A9F04F5887045F4407300224146CDE9D6
:1055F00000072046FFF760FF5FEA000905D13A4641
:10560000314604F5887001F085FB4846BDE8FC870B
:105610002DE9F04106460C464FF000080025002118
:10562000A174207F0C2876D2DFE800F0FD060F3D44
:10563000466576919AC0D7ED627904F1140130463F
:10564000FFF705FB02212177EEE061793046FBF799
:10565000CCFC0546012D1FD1207D00F08007608B1A
:1056600058B141F2883072490880802F02D103215D
:1056700021770CE00521217709E032206C49088070
:10568000802F02D10921217701E0072121773046BF
:10569000FBF79CFC208205E0032D03D10B21217731
:1056A0000521A174C0E02379A2893046A168FFF7E3
:1056B0003CFA04212177B7E021793046FBF795FCCD
:1056C0000546012D01D109212177042D02D16078F1
:1056D00020700FE0032D02D10B2121770AE0304624
:1056E000FBF774FC218A401A51490988884201D984
:1056F0000B21217798E00121627906F56B7000EBB0
:10570000421041766379A2893046A168FFF768FAB2
:105710000621217788E086E061793046FBF765FC59
:105720000546012D02D1072121770FE0042D04D178
:10573000607820700C21217708E0022D02D105212C
:10574000217703E0032D01D10B2121776CE0237930
:10575000002211463046FFF7E8F90821217763E07F
:1057600021793046FBF741FC0546012D04D16078D4
:1057700020700D21217718E0032D02D10B21217714
:1057800013E03046FBF722FC218A401A2849098899
:10579000884202D90B21217707E0042D05D16078DA
:1057A00020700421A1744FF003083DE0617906F5F3
:1057B0006B7000EB4110407E80F00101627906F5CC
:1057C0006B7000EB4210417663790022114630463F
:1057D000FFF706FA0A21217726E061793046FBF7C8
:1057E00004FC0546012D04D1607820700D2121773D
:1057F00008E0022D02D10921217703E0032D01D118
:105800000B21217710E0A07B401CC1B2A1730229BB
:1058100002DC0121217705E00821A1746078207065
:105820004FF0020800E000BF00BF4046BDE8F08135
:105830008600002070B592B005460C460126A0787F
:105840000B2874D2DFE800F0063042748096B6D69A
:10585000F9EFEE00082221462846FFF79FFE0028B8
:1058600021D18FA005F0ABFE94F82910A17196A06C
:1058700005F0A5FE2846FBF7F7FB0120A070A079F4
:105880000021CDE90010617900231A46284601F075
:1058900063F8A0790021CDE90010217900231A4690
:1058A000284601F059F8F7E0122221462846FFF772
:1058B00075FE50B989A005F082FED4F88C00C1694C
:1058C00004F1220088470220A070E5E08B480078B0
:1058D00010B10320A070DFE001222146284601F02C
:1058E00034FB18BB86A005F06AFE022002F074F9B2
:1058F000012004F10204A077D4F88A10086A8047D6
:1059000003202070002000900190A27FA178034620
:10591000284601F021F8002000900190A27FA4F118
:10592000020461790346284601F016F8B4E0B2E0BB
:10593000092221462846FFF7FFFD20B90420A07068
:1059400076A005F03CFEA7E0E28E21462846FFF750
:10595000F3FD70B9D4F88C0004F1500204F13E015B
:10596000436A04F1340098470520A07077A005F041
:1059700026FE91E094F83000A0B1FF20009094F84A
:10598000302002AB21462846FFF724FE88B9D4F820
:105990008C00816A02A888470620A07074A005F0D8
:1059A0000EFE06E0D4F88C00816A79A088470620B4
:1059B000A07071E094F83100A0B1FF20009094F83D
:1059C000312002AB21462846FFF704FE88B9D4F8FF
:1059D0008C00C16A02A888470720A0706DA005F05E
:1059E000EEFD06E0D4F88C00C16A69A08847072064
:1059F000A07051E094F83200B8B1FF20009094F804
:105A0000322002AB21462846FFF7E4FDA0B9D4F8C6
:105A10008C00016B02A888470820A07063A005F0E5
:105A2000CEFD09E032E01BE007E0D4F88C00016B0A
:105A300057A088470820A0702EE03048007810B1A9
:105A40000920A07028E094F839202146284601F06A
:105A50008FFA20B90920A0705CA005F0B0FD1BE012
:105A6000FF2004F182030022214600902846FFF720
:105A7000B1FD50B90A20A070B4F88400A0F580618F
:105A8000093902D158A005F09AFD05E000265BA077
:105A900005F095FD00E000BF00BF304612B070BDBC
:105AA0000A0D20555342485F4765745F446576444C
:105AB00065736320206F6E6C7920317374203820F9
:105AC00062797465730000000A0D204843445F52F8
:105AD00065736574506F72745F0A00000A0D204789
