:020000040800F2
:100000000804002099010008A1010008A3010008CC
:10001000A5010008A7010008A901000800000000D0
:10002000000000000000000000000000AB0100081C
:10003000AD01000800000000AF010008B101000898
:10004000B3010008B3010008B3010008B3010008C0
:10005000B3010008B3010008B3010008B3010008B0
:10006000B3010008B3010008B3010008B3010008A0
:10007000B3010008B3010008B3010008B301000890
:10008000B3010008B3010008B3010008B301000880
:10009000B3010008B3010008B3010008B301000870
:1000A000B3010008B3010008B3010008B301000860
:1000B000B3010008B3010008B3010008B301000850
:1000C000B3010008B3010008B3010008B301000840
:1000D000B3010008B3010008B3010008B301000830
:1000E000B3010008B3010008B3010008B301000820
:1000F000B3010008B3010008B3010008B301000810
:10010000B3010008B3010008B3010008B3010008FF
:10011000B3010008B3010008B3010008B3010008EF
:10012000B3010008B3010008B3010008B3010008DF
:10013000B3010008B3010008B3010008B3010008CF
:10014000B3010008B3010008B3010008B3010008BF
:10015000B3010008B3010008B3010008B3010008AF
:10016000B3010008B3010008B3010008B30100089F
:10017000B3010008B3010008B3010008B30100088F
:10018000B3010008DFF80CD000F018F80048004771
:100190002903000808040020064880470648004755
:1001A000FEE7FEE7FEE7FEE7FEE7FEE7FEE7FEE727
:1001B000FEE7FEE7AD02000885010008064C074D8A
:1001C00006E0E06840F0010394E807009847103427
:1001D000AC42F6D3FFF7DAFF3803000858030008F3
:1001E0000CB50020019000902D48006840F480304C
:1001F0002B49086000BF2A48006800F400300090D6
:100200000198401C0190009818B90198B0F5A06FB2
:10021000F1D12348006810F4003F02D00120009083
:1002200001E0002000900098012837D11C480830D8
:1002300000681B49083108600846006840F4004027
:1002400008600846006840F4A05008601548091F7F
:100250000860081F006840F08070091F086000BF38
:100260000F48006810F0007FFAD040F203700E498A
:1002700008600B480830006820F003000849083186
:1002800008600846006840F00200086000BF0448AB
:100290000830006800F00C000828F8D10CBD000000
:1002A00000380240193C4005003C024010B512489D
:1002B000006840F001001049086000200E49083134
:1002C00008600D4800680D4908400B4908600C485B
:1002D000091D0860081F006820F48020091F0860BD
:1002E000002005490C310860FFF77AFF4FF00060ED
:1002F0000449086010BD000000380240FFFFF6FE10
:100300001030002408ED00E002E008C8121F08C108
:10031000002AFAD170477047002001E001C1121F86
:10032000002AFBD1704700000248006801490860BC
:1003300000207047000000202C6706080000002005
:1003400004000000080300083067060804000020CD
:100350000404000018030008000000000000000072
:10036000000000000000000000000000000000008D
:10037000000000000000000000000000000000007D
:10038000000000000000000000000000000000006D
:10039000000000000000000000000000000000005D
:020000040801F1
:10000000F6031004000100000000A0E100000FE171
:10001000C00080E300F021E1100F11EE010AC0E3FF
:100020000800C0E30400C0E30100C0E3100F01EECC
:100030000000A0E3170F07EE170F08EE9A0F07EE68
:10004000310F19EE3E0000E2000080E3010080E382
:10005000310F09EE110F19EE3E0000E2020980E3B4
:10006000010080E3110F09EE00000FE11F00C0E363
:10007000111080E301F029E12CD39FE5121080E3F9
:1000800001F029E124D39FE5171080E301F029E175
:100090001CD39FE51B1080E301F029E114D39FE5F9
:1000A00000000FE11F00C0E3131080E301F029E11D
:1000B00004D39FE504039FE504139FE504239FE514
:1000C000040000EB00039FE500139FE50020A0E380
:1000D000070000EBCE0000EA010050E10300000A37
:1000E000020051E10440903404408134FBFFFF3AA8
:1000F0001EFF2FE1010050E104208034FCFFFF3A95
:100100001EFF2FE103402DE900100FE10010C1E1B7
:1001100001F021E10380BDE803402DE900100FE16B
:10012000001081E101F021E10380BDE800000FE152
:10013000C00000E21EFF2FE103402DE900100FE197
:10014000C010C1E3001081E101F021E10380BDE8AE
:100150000000A0E3310F19EE010080E3310F09EE3A
:10016000110F19EE020980E3010080E3110F09EE7F
:100170001EFF2FE1310F19EE0100C0E3310F09EE30
:10018000110F19EE0100C0E3110F09EE1EFF2FE160
:100190000F402DE9A00000EB34029FE534129FE5EB
:1001A0002C229FE50D2B82E23E1EC1E3111081E35C
:1001B000001082E5100F02EE0300A0E3100F03EE23
:1001C000100F11EE010A80E3040080E3020080E3D7
:1001D000010080E300129FE5100F01EE11FF2FE1F7
:1001E0000000A0E10000A0E10000A0E10000A0E10B
:1001F0000F80BDE8E4119FE500C0A0E317CF07EE34
:100200009ACF07EE17CF08EE10CF11EE0FC0CCE358
:1002100011CCCCE310CF01EE000081E51EFF2FE1F1
:100220000F402DE9B8019FE50010A0E3B4219FE540
:10023000002042E0A7FFFFEB0F80BDE81F402DE943
:1002400000004FE1200010E3B2005E11FF0CC0136C
:1002500004001E05FF04C0038CE19FE58C219FE58F
:1002600000F092E51F80FDE81F402DE900004FE1FE
:10027000200010E304004E0202004E120010A0E124
:1002800000009005B000D01164E19FE564219FE576
:1002900000F092E51F80FDE804002DE500004FE12D
:1002A000200010E302E04E1204009DE41F402DE9FF
:1002B00004004E0202E04E123CE19FE53C219FE526
:1002C00000F092E51F80FDE8000000000000000043
:1002D000000000000000000000000000000000001E
:1002E000000000000000000000000000000000000E
:1002F00000000000000000000000000000000000FE
:1003000000000000000000000000000000000000ED
:1003100000000000000000000000000000000000DD
:1003200004002DE500004FE1200010E304E04E0240
:1003300006E04E1204009DE4FF5F2DE9C0D09FE56A
:10034000FF1F8DE804004E0202004E1200500FE124
:1003500000604FE10620A0E10F0016E30F60860366
:100360002070C6E307F021E10E30A0E10D40A0E1CE
:1003700005F021E1200016E3B010D0110010900527
:10038000105F11EE106F15EE307F15EE108F16EE28
:1003900070D09FE5FF018DE868009FE568E09FE56C
:1003A00068109FE500F091E5FEFFFFEA08ED000010
:1003B00008E50000004501D0004601D008DD00003E
:1003C00000B800D000B800D060BB00D060BB00D047
:1003D000C8F400D0000001D0004001D0D8020000D5
:1003E000001180FF000000D0700000D05C0300000E
:1003F00030BA00D08C030000F6031004F0040000B3
:1004000038BA00D0BC0300003CBA00D0E4030000BE
:10041000C0030000A004000034BA00D004F01FE5BF
:10042000DD4200D004F01FE57D6800D004F01FE538
:10043000BD5500D004F01FE5642700D004F01FE58F
:10044000742700D004F01FE5995500D004F01FE593
:10045000E80900D004F01FE5D15500D004F01FE5F5
:10046000E95500D004F01FE5B00800D004F01FE506
:10047000899E00D004F01FE5F19F00D004F01FE535
:10048000C55100D004F01FE5215C00D004F01FE549
:10049000540900D004F01FE5C45D00D004F01FE54E
:1004A0001D5300D004F01FE5315C00D004F01FE5BF
:1004B0008D2F00D004F01FE5A52700D004F01FE524
:1004C0000D2A00D004F01FE5200400D004F01FE541
:1004D000380400D004F01FE5890400D004F01FE5C3
:1004E000DC0700D004F01FE5140900D004F01FE57C
:1004F000E54700D004F01FE55C1900D004F01FE5CB
:10050000842700D004F01FE5942700D004F01FE5F5
:10051000759E00D004F01FE5DF9E00D004F01FE5BB
:10052000B57000D004F01FE5CD5400D004F01FE5F5
:10053000CD9F00D004F01FE5E59F00D004F01FE53B
:10054000219F00D004F01FE5459F00D004F01FE577
:10055000499100D004F01FE5598700D004F01FE551
:100560006D2F00D004F01FE5216B00D004F01FE5D3
:10057000457700D004F01FE5A57B00D004F01FE50F
:10058000D17B00D004F01FE5217C00D004F01FE5F2
:10059000BD7800D004F01FE58D7700D004F01FE592
:1005A000617B00D004F01FE5FD7700D0F8B5234C47
:1005B0002078002841D1224A00218300D1509B1885
:1005C000401C0C281963F8D31E4DFF20A861A862B7
:1005D000082700221C4B01211000009703F054FA59
:1005E000002208230121100003F01CFA0F26AE623E
:1005F000EE610022154B0B211000009703F044FA26
:10060000002208230B21100003F00CFA60683F253C
:10061000AD014019C66100220D4B0D21100000975D
:1006200003F032FA002208230D21100003F0FAF93A
:10063000A0684019C66101202070F8BD00B800D044
:1006400060BB00D0C0DFFFFF89070000D9070000B2
:100650003908000010B50C2806D230235A43054B48
:10066000D2188000115010BD010003A001F00EF956
:1006700010BD000060BB00D04552524F5220496E61
:1006800076616C6964204576656E742048616E649D
:100690006C65722025640A0038B50D4C206A0C2860
:1006A00006D281000B484158002901D0002088471C
:1006B0000F20A06202E008A001F0E8F8012100206C
:1006C0006A4603F0D1F900980128F4D038BD000043
:1006D000C0DFFFFF60BB00D041524D4950435F492E
:1006E0005352200A0000000038B5104C3F256068C6
:1006F000AD014019006A0C2807D281000C48081887
:10070000016B002901D00120884761680F20491939
:10071000886202E007A001F0B9F80B2100206A46C8
:1007200003F0A2F900980128F4D038BD00B800D039
:1007300060BB00D041524D4950435F49535220564F
:10074000445350320A00000038B5104C3F25A068D1
:10075000AD014019006A0C2807D281000C48081826
:10076000016B002901D001208847A1680F20491999
:10077000886202E007A001F089F80D2100206A4696
:1007800003F072F900980128F4D038BD00B800D009
:1007900060BB00D041524D4950435F4953522056EF
:1007A000445350320A000000F0B50B7A157A002449
:1007B000FF265B19644103720025F31AA54101D29B
:1007C000012300E000230D68C0CA4968AA197941D5
:1007D000D2180024614102604160F0BDFFB581B0D4
:1007E0000C9C0125607C217C0002084317308608A0
:1007F000F6031004E0080000FF210198E1310A1D12
:100800005043264AB60087188E4206D8029938000F
:100810006A4600F045F8002807D1380002992030D8
:100820006A4600F03DF8002836D0009904984880C8
:10083000029808710398C880E07808720A98487294
:10084000082023181F780020020038435F783F02F9
:1008500038439F783F043843DF783F0638431F7999
:100860003A435F793F023A439F79DB793F043A4349
:100870001B061A434A610861607C227C3300000237
:100880001043001D08830B9822008885019800F012
:10089000CDFB280005B0F0BD0025FAE74099000027
:1008A00010B50378002B1ED1490009188B898C885C
:1008B000A34218D28368136083689B6A83608B8924
:1008C0005B1C8B818189C389C91843880904090C81
:1008D0008B4201D1012100E000210170116800204C
:1008E0008862012010BD002010BD0000114B10B522
:1008F0001B681122920184079A18002C04D05069B9
:10090000401C5061002010BD08290ED21069401C07
:1009100010610B20C0011818C26B521C0229C2635F
:1009200005D005A000F0B6FF01E000F075FE012043
:1009300010BD0000A4B800D042756C6B52654361D5
:100940006C6C6261636B3A20555342204D73672093
:10095000496E76616C6964206C656E3A2025640A84
:1009600000000000F8B51C4D00242E0008363F277B
:10097000BF01288880003058C019016A0120A040BA
:10098000014202D0200000F0D7F9288880003058BA
:10099000C019016A0420A040014202D0200000F0EA
:1009A00051F9641C24062416022CE2DB29880B482A
:1009B000094C89007158C919A41C886202E008A07A
:1009C00000F068FF618800206A4603F051F8009843
:1009D0000128F4D0F8BD000038B800D0FF010000B5
:1009E00043544D54696D65725F4576656E74486118
:1009F0006E646C6572200A006021484370B51B4923
:100A000044180420205600F00BFB2079801C0006BF
:100A1000001600F005FB607B002500280AD00420AA
:100A20002056FFF708ED010004202056002202F0B6
:100A300037FB65730320A071E07125720022657297
:100A400011002000A57200F0E1F925630420656122
:100A50002056002807D0012804D105480068FF303F
:100A6000C130456070BD0348F8E700001C800000FD
:100A7000ACB800D0A8B800D060214143044A10B5FA
:100A80008C1801F041FB00202063607110BD000054
:100A90001C80000060214843024940180121417137
:100AA000016370471C80000060235843034BC0184B
:100AB00083690B60C0691060704700001C800000F3
:100AC000F3B50F4E0024270081B0602060438519E4
:100AD0002C716F7320006F71FFF78EFF641CAF6382
:100AE000403524062416012CEF75EEDD04483666E9
:100AF0006030306001990E6002990860FEBD000010
:100B00001C8000000100602048430D4AFF2380182C
:100B10000C4A393310B559431268891880314A6A32
:100B2000002AFCD00122C2720022C27182710272BC
:100B3000427282720A69C96800F068F910BD00004B
:100B40001C800000A4B800D0FFB506000F001500FF
:100B500081B0FFF774EC6020704316494418206B95
:100B6000012821D1607900281ED0049B3A00002181
:100B70003000009500F060FE27650B98A073049983
:100B80002000403081754575012060730A982082ED
:100B900009484168200000F069F9E0630321200062
:100BA00001F0DAFA012400E00024FFF74CEC200009
:100BB00005B0F0BD1C8000000010FEFFF8B5070076
:100BC000FFF73CECFF203C0039301D4D44432868C2
:100BD0002018FF304130806B0026002807D03800F5
:100BE00001F05AFA28682018F6031004D00C00000F
:100BF000FF304130866328682018FF304130C06BD9
:100C0000002807D0380001F01BFA28682018FF30B0
:100C10004130C66328682018FF3081300068002802
:100C20000CD0380001F024FA28682018FF308130F9
:100C3000066028682018FF3041308663380002F0D3
:100C400033FDFFF704ECF8BDA4B800D060214843A1
:100C5000094910B544186079E26AA16A00280AD0EF
:100C600000202072200000F0D5F8002803D00121D8
:100C7000200001F075FA10BD1C80000010B5284955
:100C800000220320FFF7EEFC264900220720FFF791
:100C9000E9FC254900220620FFF7E4FC2349002255
:100CA0000520FFF7DFFC224900220820FFF7DAFCCD
:100CB000204900220920FFF7D5FC1F4900220A2005
:100CC000FFF7D0FC1D4900220420FFF7CBFC14499C
:100CD00001220320FFF7C6FC124901220720FFF77B
:100CE000C1FC114901220620FFF7BCFC0F4901227B
:100CF0000520FFF7B7FC0E4901220820FFF7B2FCE0
:100D00000C4901220920FFF7ADFC0B4901220A2002
:100D1000FFF7A8FC094901220420FFF7A3FC10BD3E
:100D2000411E0000D91D0000711D00006D1F000054
:100D30005121000021210000812100000D1D000033
:100D400060214143054A10B58C180100012001F0D3
:100D5000E7FE0221200001F003FA10BD1C80000014
:100D6000F7B5050060200F0068431549154E44187B
:100D70003168112292010A208918C862FFF762EBDC
:100D8000617B0020002900D060736072FF21E07158
:100D90003931A0714D432072A07231686918C8655D
:100DA000316869180866029A3900200000F032F8AC
:100DB0000121200001F0D4F9FFF748EBFEBD00004F
:100DC0001C800000A4B800D070B50D00602148431D
:100DD0000E49160044180E49112209689201092093
:100DE0008918C862E665A565FFF72CEB01206072E3
:100DF0000020A07232002900200000F00BF808212A
:100E0000200001F0ADF9FFF722EB70BD1C8000005F
:100E1000A4B800D070B5047B0023E40601D00125FE
:100E200000E000258479C679E407F607E40FB60FE1
:100E30003443067AF607760F3443867AF607360F80
:100E40003443467AF607F60E34430473E40600D0C2
:100E50000124AC4200D00123002BC47204D0002C2A
:100E600004D0426201230162180070BDC2610123F7
:100E70008161F9E770B50400042020560D00FFF7EA
:100E8000EAEA0200E069937B2D1AD07BA90840347E
:100E900000021843081AE17D002909D0517C137C17
:100EA000147B09021943537B1B022343C91A401ABE
:100EB000002800DA0020D17A927A09021143FFF764
:100EC000CEEA0449401C0A68132189015118CD60FB
:100ED000886070BDA4B800D0F0B505000420285685
:100EE00089B000270190FFF7AAEA01000490019859
:100EF000FFF7B8EA06002868417900290AD0817A0C
:100F0000012904D0006B002804D0012802D0002061
:100F100009B0F0BD40484068010003902800FFF789
:100F2000A9FF02902C8AE86BA04200D90400049922
:100F3000019801F099FF0299401A0019022800DA7D
:100F400002206863F27AB37A029912021A43F37BA1
:100F5000B47B091851431B022343C918EB6989006C
:100F6000CC185721495D002909D0717C337C0902D6
:100F70001943737B367B1B023343C91A08E003997C
:100F8000611A01D4302905D20F2F03D27F1C9100A2
:100F90000C19F4E7C019686301980390FFF74EEA53
:100FA0000590039804A9FFF762EA0126002814D0EF
:100FB000F1078C4206D90498C908884202D2071B5F
:100FC0007F1E03E0049884421ED8071B05990398EE
:100FD00001F030FF8000B84216D2E869FF22201AE3
:100FE000F6031004C010000080085F325043AC6468
:100FF000A969091869640198002807D009480068A0
:10100000FF300130C1620663012085E70648F6E73C
:1010100006491522096803209201891888607AE739
:101020000010FEFFACB800D0A8B800D0A4B800D023
:10103000010010B5012001F077FD10BD70B50C0066
:1010400005001100206A1A00FFF718EAFF20E530BA
:1010500068430D49C82241180420205650432822D5
:101060000918E0885043091848318869002809D0D8
:10107000C8698462CC61012020700021280002F040
:10108000FBFA70BD8C61F5E7409900000120002259
:101090000A6070477047704738B501246846FFF70B
:1010A000F2E9009841888088090A00060902000ECA
:1010B00001430448090480680914FFF7E8E92000A7
:1010C00038BD00004CBB00D0F1B584B0FFF7BEE9DD
:1010D0000498FF21E5314843454900244018009019
:1010E00004982100FFF7C2E902902000C82148437C
:1010F00000990026081803902821714345184835A7
:10110000AF6948E00120A88001F060FC030AA871E3
:10111000EB71030C000E2B726872080AA972E87258
:10112000080C2873080E687300227988D243281DA2
:10113000FFF7B0E9002842D000203870B86A2100DB
:101140000190380000F0DCFF2A480499FF22006873
:1011500019325143806988234218200058431423D0
:1011600073438446C01886467244136B019F21481E
:101170005B1E13630268604692690C305218135864
:101180005B1C13501B4800688069411870460818A2
:10119000816A491C8162002FB4D10020E861A861F6
:1011A0002870A8846870E870062070430299761C45
:1011B0004018C07C052E688405D203989CE7FFF791
:1011C0004AE905B0F0BD6200009900208918FF319E
:1011D000641CC043C13124062416022C488300DA63
:1011E0007EE700980021FF30C1304176E7E700003C
:1011F00040990000A4B800D0F3B58DB00D980E0052
:10120000FFF734E908900D98FF22E5325043C821DA
:101210007E4A714380184118059171004018FF30D3
:10122000C1300690300088214843FF2104900D987A
:101230001931484330210B90300048430025099074
:101240000D98602148430A902820684305990C189E
:101250004834E078002826D0FFF7F8E8A769002F87
:101260000FD0787A0A990028694800681CD00918BC
:10127000099809180B2080010818816B491C8163AB
:101280001BE063480D9B00682A0081680D98800070
:101290001830085821004069009601905D4800F020
:1012A00001FB0020E070ABE00918099809180B2039
:1012B00080010818816A491C8162A088002854486E
:1012C00001688A690B9946D0521804990C31535819
:1012D0005B1C5350016814238A690B996B435218A5
:1012E0000499C91851188A6A521C8A62A28800217E
:1012F000C943012A5BD00A9A00681218099812188B
:101300000320000210180268521C02604048142397
:1013100000686B4382690B9812180498C018101863
:10132000026B521E026378880A0412140100201D09
:10133000FFF7B0E800202070A084062160706943A8
:10134000E070089A8918C97C61843870B96A0029EC
:10135000A16145D045E052180499083153585B1CEF
:101360005350016814238A690B996B4352180499EE
:10137000C91851184A6A521C4A62797A00680029D1
:101380000A9909D00918099809180B208001081832
:10139000C16B491CC16308E00918099809180B20A2
:1013A00080010818C16A491CC1620021AEE77A7A3F
:1013B0000068002A0A9A09D0121809981218032006
:1013C000000210184268521C42609FE712180998E8
:1013D00012180B2080011018F6031004B01400003E
:1013E000026B521C026395E7E0613100380000F0A7
:1013F0008BFE06991A20085EA84203D106980021A8
:10140000C9434183FFF72AE86D1C052D00D21FE771
:101410000FB0F0BD40990000A4B800D01C3C000003
:10142000F3B5002083B0009003980C00FFF722E88A
:1014300001900398FF21E5314843244900254018D5
:10144000C8214C430719282068433C184834E078E9
:10145000002834D1A669002E31D0307801282ED151
:1014600073693269039801F025FA002813D001202E
:10147000E070A08001F0AEFA020AA071E271020CE5
:10148000000E22726072080AA172E072080C2073CA
:10149000080E607313E002203070002606206843B7
:1014A000A68401994018C07C6084300000F018FECA
:1014B000618C0840208201200090667020706D1CB5
:1014C000052DC0D3009805B0F0BD00004099000084
:1014D000F0B5224887B00490007800283CD0002660
:1014E000684606721D482038856AC46A00950194D2
:1014F000FEF7B0EF194A0021103A13003033187A82
:10150000FF27301A89411072381A8E4103D2002009
:10151000C043010001E0002001001E685B68AD1BB4
:101520009C4128184C4111C2FEF798EF04990B4CCE
:101530000020203C0870226BA16A636BE06A891A64
:101540009841074B0022591A824101D2FEF7AAEFB7
:10155000E16AA06A6163206307B0F0BD28BF00D0D4
:1015600060900F0010B50C0028225143FEF79EEF4B
:10157000002002E0401C0004000CA042FAD310BD81
:10158000F0B50025059E05702C0096464680721E1B
:101590009C46816012E0674667437346FB1830271C
:1015A00067437F183B629442786203D03B0030333C
:1015B000BB6200E0BD62641C2404240CB442EAD384
:1015C00000214A001218958196808A001218491C41
:1015D00009060916156102299561F2DBF0BD0000CC
:1015E00030B5012089B001F0FDFA0F4C0F4A216F90
:1015F000401A904215D950100D1800206946087203
:10160000D01000210191009021006A4604A8FFF744
:10161000DBF8FEF720EF04A80FC825670FC4FEF71C
:101620001EEF09B030BD000008BF00D0C0D8A70031
:10163000FEB50400083000900190E078A278564F83
:101640000002B968104309188007800F0422101A9D
:10165000081825217A68890143189A4201D238680E
:1016600043184E4D00212A688E00F619F668002EA8
:1016700010D086420ED99E420CD201208002101852
:10168000C16B491CC1630B20C0011018816B491C40
:101690008163FEBD491C0229E6DB8107B86005D0E5
:1016A0001121890151188A69521C8A613C49FEF74F
:1016B000F2EE60782178000208430106090EFF204F
:1016C00081300B00FEF7F6EE0C072233220F1C22AE
:1016D000222237454D22617922790098090211436F
:1016E000FEF7ECEE40E0E178A27809021143814276
:1016F0000CD16079217902020A430099002013E09D
:10170000E178A27809021143814207D029680120BB
:1017100080020818016B491C016325E0617920797A
:101720000A02024300990120FEF7CCEE1CE001986A
:1017300001F010F918E0E178A278200009021143C5
:10174000082903D8002201F0C5FE0DE0FEF7BEEE29
:101750000AE060792279010211432000FEF7BAEE17
:1017600002E02000FEF7BAEE2A680B20C001111833
:101770004B685B1C4B6061782378090219430C2984
:1017800006D28900891808188168491C8160FEBD4D
:1017900004A000F08BF8FEBD4CBB00D0A4B800D074
:1017A000F80F000055534220446F776E6C696E6BE2
:1017B00020426164204D65737361676520547970C0
:1017C000652025640A000000F8B5204C0700666E0D
:1017D000F6031004A0180000002E28DDA06EF317F9
:1017E0003A1A0093206E1500C1170023FEF77EEE13
:1017F000009B3200FEF77EEE04220023FEF77AEE15
:1018000006000091FEF72AEE22696069009992199C
:10181000484122616061FEF726EE206EB100401A59
:101820002066606EA766401B002860660CDCA06D19
:1018300000280AD0E16D002907D0626E5118616658
:10184000216EA76608182066F8BD00206066206635
:10185000A066F8BD08BF00D070B5049D002811D067
:101860001148124C0068FF2635363152121BC11D3B
:10187000F9318A6301240026002B08D0FF2341336D
:101880001C5207E00A48D92400682406EBE7FF232E
:1018900041331E52002D02D01432CA6300E0CE63E1
:1018A000FF30C130446070BDACB800D0000020D91A
:1018B000A8B800D00FB4F8B52948069A7F2107AB25
:1018C000FEF71CEE2749020048680968884202D1E9
:1018D0007F235B0108E0884204D9234B1B1A193B84
:1018E000CB1801E00B1A183B1D4C9507AD0F0AD021
:1018F0000021042701267D1B02E05718491CE655EC
:101900008D42FAD8AA189A420BD9184801681120BA
:1019100080010818416A491C4162F8BC08BC04B047
:10192000184711490F4D8618491E8E4210D9C943D8
:101930007618A968971B081809493A00FEF7E2EDE6
:10194000A868E1190C303200FEF7DCED0C3604E03B
:10195000A96808180249FEF7D6ED6E60DDE70000C1
:101960007CDB00D0CCBB00D0F80F0000A4B800D0C6
:101970000648074AC1689142016001D30C21016009
:10198000024800212030017201207047CCBB00D0FA
:10199000F80F000004498A68801AC86002480121D3
:1019A0002030017270470000CCBB00D0084A10B54F
:1019B000130001242033022804D0506A081A106250
:1019C0009C7210BD9069081A50615C7210BD0000D5
:1019D000CCBB00D00C4A10B5146893681B19036087
:1019E00010002030007A0024002801D00C6010BDC7
:1019F00009CA8342FAD0834201D9181A01E0034A86
:101A0000101A086010BD0000CCBB00D0F80F000019
:101A1000F0B5164B144E1C00366800252034022801
:101A20000AD0FF36C1363069DF695E6AF6190E608A
:101A3000A17A002909D10FE08036B0691F699E693B
:101A4000F6190E60617A002901D01560F0BD1969A0
:101A500003E0401A1060F0BDD9698142F5D081429F
:101A6000F7D30348F5E70000A4B800D0CCBB00D002
:101A7000F80F0000F8B504000D00114816001F0013
:101A80008021FEF744ED0F480C210068FF30413003
:101A9000C1600D480068FF304130C1600B48002232
:101AA0004161016241600160016147628661856058
:101AB000C161010020310A724A728A722060F8BD49
:101AC0007CDB00D0A8B800D0ACB800D0CCBB00D034
:101AD000F1B5174C174A61682068814201D30D1A8D
:101AE00001E0131A5D18002D18D012490C398D42EF
:101AF00000D90D000E4946198868096841189642B8
:101B00000ED90C4840423618AF1B00983A00FEF739
:101B1000FAEC0098A168C019320003E00020F8BD7B
:101B200000982A00FEF7EEEC28002660F8BD0000C1
:101B3000CCBB00D0F80F0000F3B5234981B0019869
:101B40000968224E022809D0FF31C131F0690969C4
:101B5000776A1F4A814206D30D1A06E08031306948
:101B60008969B769F5E7131A5D18002D17D0184970
:101B70000C398D4200D90D004419944211D91449F1
:101B800049426418291B00913918009A0298FEF7FF
:101B9000BAEC0099029822004018390004E00020B5
:101BA000FEBD391802982A00FEF7ACEC0198022815
:101BB00007D00848F4610068FF304130C460280055
:101BC000FEBD05483461F6E7F6031004901C0000E2
:101BD000A4B800D0CCBB00D0F80F0000ACB800D047
:101BE000A8B800D009480A4A4169914201D30C21A2
:101BF0004161016107480068FF304130C16003481E
:101C0000002120304172012070470000CCBB00D081
:101C1000F80F0000A8B800D009480A4A016A9142AA
:101C200001D30C210162C16107480068FF304130D7
:101C3000C1600348002120308172012070470000FC
:101C4000CCBB00D0F80F0000ACB800D0F8B5050050
:101C500060206843144944182800FEF700EC060091
:101C6000124F0020A07139681122920105208918B5
:101C7000C862E369A2690021200001F011FD28205B
:101C80004543142138684E43281881190F208001DC
:101C90000818C169491CC16139680520000208188B
:101CA000016B491C0163F8BD1C800000A4B800D082
:101CB000F8B50400FEF7D2EB06006020604314493B
:101CC00045186879002821D0FF20124F3930604331
:101CD00039684018C16DA9710121E971026FC16EA7
:101CE0002800FFF7A7F8002803D00121280000F002
:101CF00047FA28204443142138684E43201881199C
:101D00000F20800108188169491C8161F8BD00001D
:101D10001C800000A4B800D0F8B50400FEF79EEBCC
:101D2000060060206043144945186879002821D0D6
:101D30000120A871FF20114F3930604339684018E5
:101D4000016EE971026FC16E2800FFF773F8002879
:101D500003D00121280000F013FA28204443142165
:101D600038684E43201881190F2080010818016936
:101D7000491C0161F8BD00001C800000A4B800D01F
:101D8000F8B50400FEF76AEB0600602060431349D3
:101D900045186879002820D00020A871E871FF203C
:101DA0000F4F3930604339684018826E416E280009
:101DB000FFF740F8002803D00121280000F0E0F9E7
:101DC00028204443142138684E43201881190F20DD
:101DD000800108184169491C4161F8BD1C80000060
:101DE000A4B800D0F3B581B001980C00FEF74AEB1F
:101DF00006000198FF21E53148432B490025401892
:101E0000C8214C4307192800282148433C1848346E
:101E10006078002844D0A08C401C0104090C3000DC
:101E2000B030A1844278037810021843814203D96C
:101E30000120E070022009E0A0694369026901986D
:101E400000F040FD002813D00120E070A08000F0D9
:101E5000C9FD0300A071000AE071180C2072180E71
:101E60006072080AA172E072080C2073080E607399
:101E7000E078002812D106216943608C8A19517DCF
:101E8000127D09021143884202D24000401C608446
:101E9000002000F02DF9618C084020820020607045
:101EA0006D1C052DAFD3FEBD40990000F1B582B089
:101EB0000298FF213931684E48433168441802982E
:101EC000602148436549543445183620015702982B
:101ED0000191FEF7D8EA697900296ED031000B68CC
:101EE0001126B60104229E19F262029A2826724334
:101EF000019F0092D21814235F43D3190F2292013D
:101F00009A18136A5B1C13620A687101511894468F
:101F10004A6B521C4A63228D60265306029A724312
:101F20004E4E96194036002B2ADA226AC17B837BFB
:101F300009021943FF235F33594351186964616AE9
:101F4000C27B807B1202024390000818A8640098AC
:101F50006044C1190F2080010818C1690027491C7D
:101F6000C161F775687B002808D00298FEF776EA11
:101F700001000298002201F0A7F86F73072138E0F2
:101F8000228D92071AD58A6B521C8A63616854228B
:101F9000D24391420CDA427B037B296A1002FF2272
:101FA00018435F32424380008A1A696A0B1A01E0C3
:101FB000226A636A0120F0752BE04CE0208D8006D8
:101FC000F6031004802000001BD5A879012801D158
:101FD0000020A8710020E87100986044C1190F200A
:101FE00080010818C169491CC161626A216A280020
:101FF000FEF724FF00200921F075280000F0C4F846
:102000001DE0208D000718D5A879012801D10020F6
:10201000A8710020F075636A226A0021280001F08F
:1020200043FB0F48009900680818C1190F20800170
:102030000818C169491CC16101E00120F075208DBB
:10204000C0060CD5206BA08E606AA18D8900401A55
:102050000090A38E226B01990298FEF764EAFEBD00
:10206000A4B800D01C80000060214843084910B586
:1020700040184179002909D0064A112312689B01B2
:102080000821D218D162052100F07EF810BD0000B1
:102090001C800000A4B800D060214843084910B556
:1020A00040184179002909D0064A112312689B0182
:1020B0000721D218D162062100F066F810BD000099
:1020C0001C800000A4B800D060214843084910B526
:1020D00040184179002909D0064A112312689B0152
:1020E0000621D218D162042100F04EF810BD000084
:1020F0001C800000A4B800D0064A0749002806D07A
:10210000064B5843801808604000400C7047086830
:10211000F6E70000C39E260008800000FD43030090
:10212000426A49008B189989491E998100211170D2
:10213000916881629060704770B5040060206043D0
:102140000E490F4A40180021C172C171817101729C
:1021500041728172017352680A4DA300EA50012254
:102160000263427B002A08D041732000FEF77AE91F
:1021700001000022200000F0ABFF70BD1C800000B9
:102180000010FEFF00800000FEB504240457050087
:102190000F002000FEF766E9010000902000FEF726
:1021A00076E9072F019001D1802028632800296B50
:1021B00040300026102902907ED008DC00290DD086
:1021C00001292DD0022918D004290CD148E020295A
:1021D00073D0402972D08029F7D126E2E87A01280D
:1021E00002D0002802D0BAE202201CE2032F2BD03A
:1021F00001E0042017E2012015E2012F04D0092F8D
:1022000005D0082F08D0AAE2E87A0028EBD1687B35
:102210000028F0D0EE6317E0687B002819D19EE219
:10222000012F04D0082F06D0032F0DD097E2E87AB3
:102230000128D9D093E2687B0028D5D02000FEF792
:1022400012E90022010053E02800FEF759FE0028A1
:10225000CFD16E7300990022200000F039FF7EE29A
:10226000012F0AD0F748F84B082F38D0042F43D05D
:10227000052F74D0062F71D071E2E87A0128B2D10F
:10228000696A2800FEF70AFE0700F0480168092085
:10229000C00108184763E86BB84204D23A1A0099A3
:1022A000200000F00FFEEE630198C17B807B0902E5
:1022B00001430198C37A02E0A2E017E164E1827A67
:1022C000180210437843AA690818FF215F3141437F
:1022D000800051182962E9690818686284E7002CB7
:1022E00004D01868FF3001300663F5E00068F9E7B4
:1022F000200000F0EDFEF7E0EE71AE7101202E72CD
:10230000A872AA6C696C2800FEF798FD102028635B
:102310000099200000F0E0FF03041B0C042B17D8E9
:10232000CA4DFF212868220019314A43806988215B
:102330008618009841430800103037587F1C3750EA
:1023400028688069801814225343C9184018E2E0B5
:102350002100009A4131BEA0FDE000E028E0296C98
:10236000BA4A491C2964FF2139316143126889182E
:102370008031096B002912D0002C0ED01868FF3074
:10238000013006630099200000F042FF01206E73C7
:102390002863B8A0FFF796FAE1E10068EFE72800AC
:1023A000FEF7AEFD002800D023E700990022B2E13D
:1023B000A64F112138688901F6031004702400002B
:1023C00041188A6A521C8A62FF2139316143AE7218
:1023D000EE710818AE7180302E720269C168280053
:1023E000FEF730FD0298407D002868D00198C17B3F
:1023F000807B090201430198C27A837A1002184354
:1024000042008018081836E0052F04D0062F11D09E
:10241000082F62D0A7E1FF203930210041438D48C9
:10242000AE720068081880300269C1682800FEF7A3
:1024300009FDBEE7AE72FF20EE71864F3930AE71F6
:1024400060432E723968401880300269C1682800E4
:10245000FEF7F8FC0298407D002830D00198C27B3E
:10246000817B100208430199CA7A8B7A11021943C1
:102470004A0089184018E96980004018010001905D
:10248000200000F011FA00280BD0202028630198CA
:10249000A8633968132080010818C169491CC1610B
:1024A00061E100990122200000F016FE6E73396888
:1024B000132080010818016A491C01629FE6AA6C7A
:1024C0000099200000F0C6FF6E7339681320800168
:1024D0000818416A491C416291E6407D002802D0FB
:1024E0000099002208E7AA6C0099200000F0B2FFD2
:1024F0006E737DE657480168132080010818816AD1
:10250000491C012F816202D0022F0CD02BE1A97946
:10251000012902D0E9790129C2D140212963C16A88
:10252000491CC1621FE159484768A86BB84219D9D4
:102530002100012000F00CFB2100012000F014FB21
:102540000121080000F054FB06000021012000F0EA
:102550004FFB01960090AA6B3900D31B4CA0FFF7EC
:10256000B5F900E100990122200000F0B5FD6E737D
:10257000687A01280AD001202863364801681320B0
:1025800080010818016B491C0163ECE00220F3E7AD
:1025900030480168132080010818816B491C092FFD
:1025A000816302D0012F16D0DDE0AA6C00992000D3
:1025B00000F050FF6E73687A01280AD0012028636A
:1025C00024480168132080010818C16B491CC163AD
:1025D000C9E00220F3E7A879002824D1E87900288F
:1025E00021D12A484068A96B81421FD2009901225B
:1025F000200000F071FD6E73687A012814D001206C
:102600002863144805210068090241180A68521C11
:102610000A60112189014118CA6ACA630A6B09213B
:10262000C901401802609EE00220E9E720202863EB
:1026300099E0072F42D0062F4BD0052F76D0082FD8
:1026400000D1D5E5012F70D089E00000A8B800D0F6
:10265000ACB800D0A4B800D05261642025633A2001
:10266000436825642C2043544D20517565756520C1
:10267000496E76616C69642025640A0054784D6166
:102680006C666F726D65640A000000000010FEFF4A
:102690004561726C7920527841434B2054696D65D5
:1026A0006F7574203078257820307825782025645F
:1026B000203078257820307825780A00EE71AE71C8
:1026C00001202E72A872AA6C696C2800FEF7BAFB72
:1026D00049E0EE71FF20AE713E4F39302E726043FB
:1026E000AE723968401880300269C1682800FEF770
:1026F000A9FB60206043396830224118009850439C
:10270000091810010818C168491CC160687B0028BD
:1027100000D174E52000FDF7AAEE002201002000A0
:1027200000F0DAFC6E736AE500E015E0687B0028D3
:1027300008D02000FDF79AEE01000022200000F0F2
:10274000CBFC6E73EE72AE72EE71AE712E72687A61
:10275000C007C00E287352E5E87A012809D0390075
:102760001DA0FFF7B3F825484068254AA100505046
:10277000FEBD02202863FF20210039304143154867
:102780000A000368C918FF3181310B68002B12D091
:102790000E6001685118FF3141318E636021614341
:1027A00000683022091800985043091810010818D1
:1027B000F603100460280000C168491CC160AE72B5
:1027C000687B0028D3D02000FDF754EE01000022E2
:1027D000200000F085FC6E73C9E70000A4B800D0AB
:1027E000554E4B4E4F574E2054524947202564209A
:1027F000696E2043544D5F545841434B5F574149E4
:10280000540A00000010FEFF00800000F0B51E4AD0
:102810000125140000234034012831D02600367CE5
:10282000022808D0042803D1002E02D19365D36575
:10283000F0BD2574F0BD906B081A002EFAD0012E61
:1028400015D0114FBF6BCF1B10497918022E10D035
:10285000032EEFD1A02913D8516DCB08C01A081848
:10286000C10850650A48411A9165D065F0BD022043
:1028700004E0A029FAD8C000506503202074F0BD00
:102880009365D365D5E7000008BF00D050F7C2FFBD
:1028900000093D000449896B401A0449884201D966
:1028A000012070470020704708BF00D0A0183D00ED
:1028B00010B50400084800234068401D814209D932
:1028C0000A002100012000F0A9F92100012000F0F8
:1028D0004FF90123180010BD0010FEFF70B5140061
:1028E0001D002000284306D000F088F8201A8D41F2
:1028F00001D2012070BD002070BD000070B5012024
:1029000000F084F91B4901224B6F002B06D0CC6FDD
:10291000194B8442CC6F04D2041B04E0C8674A6799
:1029200070BD041B641E9C42FAD9C8671148603010
:102930000283C86F0A6F0E7A821A90079408000EFD
:10294000002530180B4B2A006A4140331872FF26CD
:102950002B00301A934101D2012300E000230E68BE
:1029600000201B1968414A68F31842410B644A640D
:1029700070BD000008BF00D080841E000168044ABA
:1029800040689162D06201211000203001707047D0
:1029900008BF00D010B50400012088B000F036F95F
:1029A00009496A46096F401A8101117280080021A5
:1029B00001910090044904A8FDF71AFF04A80FC86C
:1029C0000FC408B010BD000008BF00D010B504004F
:1029D0008CB008A8FFF7DEFF08A80FC8079304AB68
:1029E00007C3054A04A96846FDF702FF68460FC8F9
:1029F0000FC40CB010BD000018BF00D01FB5684652
:102A0000FFF7E4FF0199009804B010BD70B50D49BF
:102A1000002506000C00603C8D8125670D83E5676D
:102A200029000120FFF7F2FE25666566A5660020F5
:102A30002576206160612063656565676063346049
:102A400070BD000068BF00D0F8B51F4C208B012678
:102A50001E4D0027B602002814D027832868603C4A
:102A60008019016A491C0162E06FFFF713FFE16FF3
:102A7000002801D0042000E00220FFF7C7FEE06F2D
:102A8000A06319E0012000F0C1F8FFF703FF002860
:102A900008D028688019416A491C4162002104203D
:102AA000FFF7B4FEA089401C0004000C0528A0819B
:102AB00002D3A781FEF7A8FDFEF71EFD012000F05E
:102AC000A5F8FEF795FEF8BD68BF00D0A4B800D009
:102AD00010B50400094888B0006F6A46091A8801D9
:102AE00010728808002101910090044904A8FDF7A4
:102AF0007FFE04A80FC80FC408B010BD08BF00D0E7
:102B000010B504008CB008A8FFF7E2FF08A80FC8B2
:102B1000079304AB07C3054A04A96846FDF768FE9E
:102B200068460FC80FC40CB010BD000018BF00D01D
:102B30001FB501006846FFF7E3FF0199009804B054
:102B400010BD10B50400FFF759FF201A84000120C2
:102B500000F05CF8001910BD01228A400349800092
:102B600008583F21890140188261704740B800D061
:102B700001228A400349800008583F2189014018FA
:102B8000C261704740B800D038B5184A8300D558A4
:102B900000242C60D558491EA960D558022129600F
:102BA000D158CC60D1580C61F6031004502C0000B1
:102BB000D5583F241049A4012D19A961D5582C19C5
:102BC000A162D25801210128116012D10948094C93
:102BD0000838018005200090A41F00226188074B5F
:102BE000100000F079FF002261880523100000F03A
:102BF00041FF38BD40B800D0FF0100004D0A000081
:102C0000034A8000125888001430105870470000A2
:102C100040B800D002498000085840687047000062
:102C200040B800D0034B80001B58880014301A5065
:102C30007047000040B800D0F3B589488DB00390CC
:102C4000002006900B9002900E990D98FDF72AEC4B
:102C50000500C07AA97A0002084305900D9802A9E0
:102C6000FDF724EC00280C9028D00120FFF7D2FFBC
:102C700004000120C007844207D9029801210907F6
:102C8000884202D2001B401E05E00298844201D90E
:102C9000002000E0001B0599FDF700EC069002986B
:102CA000011B704808187049884207D26F480168B4
:102CB000152080010818C168491CC1600E98C82100
:102CC00048430D99FF22E5325143694A002789188C
:102CD0000E1809912820784334184834E0780028E9
:102CE00044D12078002841D006207843218A401919
:102CF000807C08180004000C0090A069808DA082E0
:102D00000C9900292BD00599FDF71CEC228A0100B3
:102D10001431521806998A4221D900212170A269E2
:102D2000012111705149228A0B68052109025918A5
:102D3000CA60086106984861A08A88610598C861E0
:102D40000120FFF767FF49490A6805210902511868
:102D5000086202984862886A401C886206E003990B
:102D60000098884202D2039001200B907F1C3F0400
:102D70003F14052FAEDB0B98002867D00E98099AF8
:102D8000400014180021FF34C134080028225043A9
:102D9000301848300278002A12D006224A43038AAB
:102DA0005219927C9A18039B1204120C9A4207D172
:102DB0001A22A25E002A01DA618301E00122427038
:102DC000491C090409140529DFDB1A20205E28218B
:102DD0000623414358432A7A4019807C71184831B0
:102DE00001920090888C002801D0012300E000238C
:102DF0008869427A016A0D98FDF7CAFE0D99FF2293
:102E0000E53251431A4A8918FF31C13100280DD0EB
:102E10000120000308621548016805200002091816
:102E2000086B401C086301200FB0F0BD0020C043B8
:102E300060830120C00308620C480168052000027D
:102E40000818C16A491CC1620020EDE70748016803
:102E5000052000020818416B491C4163F4E700009B
:102E6000FFFF0000FFFFFFBFFFFFFF7FA4B800D000
:102E700040990000FF230200E5335A43094B10B587
:102E8000D3184A009C18FF22DB32A25E0020002AE1
:102E900007DBC8204143581828214A43801848308E
:102EA000808A10BD40990000FF230200E5335A4399
:102EB000094B10B5D3184A009C18FF22DB32A25EE2
:102EC0000020002A07DBC8204143581828214A4324
:102ED00080184830008A10BD4099000070B5150078
:102EE00004000E00FDF7DEEA0100FF20E530444358
:102EF000C82210485643002320188419282058431C
:102F0000201848308269002A10D01278022A0DD188
:102F100006225A43068A5218927CAA1AB21A02D57D
:102F20000022028202E0468C164006825B1C052BC2
:102F3000E4D370BD40990000FF22E5325043034ABC
:102F400000218018FF30C1300176704740990000A1
:102F5000FF23E5335843074B00214A1EC0184B009E
:102F6000C318FF33491CC1330906091602295A83C5
:102F7000F5DB704740990000FF22E5325043034AD9
:102F800001218018FF30C130017670474099000060
:102F9000FFB504000F001E0083B0FDF7D8EA002142
:102FA000F6031004403000006156FF201930414301
:102FB0000120205688224D4D50433B0008182968B7
:102FC00089690A58521C0A5005980294009001968B
:102FD00001210020615620560C9AFDF72BFC0B2690
:102FE000B601002843D0286800278169E057FF22F6
:102FF0001932504314230A18012161568820414395
:103000000C985843FF23091851180A6A1933521CA7
:103010000A6229688A69E1575943882352180121B5
:103020006156594308181018016B491C0163059833
:103030000028E0570DD0602148432968302241180C
:1030400001202056504308188019416B491C4163E8
:1030500046E060214843296830224118012020566B
:10306000504308188019416A491C416238E0032125
:1030700068460180FFF7CAFC02006846130A8270A6
:10308000C370130C120E037142710A0A8171C2716E
:103090000A0C0272090E00224172D2433900FDF778
:1030A0001AEA00202056602130224843296801276F
:1030B0004118012020565043FF2208188019016A48
:1030C0001932491C0162286881690020205650434A
:1030D00088220918E0575043001D0A58521C0A5014
:1030E000FDF73CEA380007B0F0BD0000A4B800D0FE
:1030F000F7B505000F0082B0FDF7D8E90090FF207A
:10310000E530684341491A26411878000818FF3015
:10311000C1300190865F3E48002E10DA0068A90099
:1031200083680A00081818329A58006A2900036B4D
:10313000526938484131FEF7D5FB05B0F0BDC822D1
:103140007A438A1828217143541804994834002975
:1031500012D0A18C00291CD0602169430068081896
:1031600030214F43C1190320000208188168491C0F
:103170008160A08C401CA0840098A18CB030427863
:10318000037810021843814208D90120E070022020
:103190000EE0A0690121006A8171EAE7A069436934
:1031A00002692800FFF7A2FB002813D00120E0707D
:1031B000A080FFF72BFC020AA071E271020C000E46
:1031C00022726072080AA172E072080C2073080E65
:1031D0006073B2E701980021C94341830498002835
:1031E000ABD006214E430099608C7218517D127D40
:1031F00009021143884202D24000401C6084002032
:10320000FEF78AFF618C0840208296E74099000013
:10321000A4B800D06C3C0000FF22E5325043034AC2
:1032200001218018FF30C13041767047409900007D
:103230000A00FF21E5314143174B70B5CB1851000F
:103240005C18FF21DB31615E05004135002902DA9F
:10325000290012A01CE0C82042439818282251439C
:10326000441848340120E0700220A080FFF7CEFB14
:10327000020AA071E271020C000E22726072080A4A
:10328000A172E072080C2073080E6073290013A06D
:10329000FEF728FB70BD0000409900005261646990
:1032A0006F49442025632054785175657565206603
:1032B00061696C6564206672616D6520657863681C
:1032C000616E6765207768656E207175657565202C
:1032D0006E6F74206163746976650A002020526104
:1032E00064696F2025632C204578636565642052EE
:1032F0006574726965730A00FF22E5325043044A1F
:10330000490080184118FF20DB30085E704700003C
:1033100040990000F3B5002581B0274E2A20009087
:103320003068AF003818C26B3F2040016843234922
:103330002B004118FF20E530434321481C18FF2390
:10334000F5332000FEF738F91720009030681D494A
:103350003818426C4520000168431B4B411820007F
:103360002030FEF729F90026771EC820704305217A
:1033700020184830FEF712F970002018FF30761C34
:10338000C13036063616022E4783EEDB2100FF31B0
:103390000020C13148766D1CF60310043034000063
:1033A00020642D0660642D160876022D0862B8DBB5
:1033B0000548019908600299FF30E5300860FEBDBC
:1033C000A4B800D0E080000040990000A090000068
:1033D0004C09000070B50600FDF758E80500010033
:1033E0003000FEF73DF8FF20E530704310494018EB
:1033F0000400FF34C134217E00290AD0690040183E
:10340000FF21DB31415E002903DA29003000FFF79C
:103410001BFC29003000FEF7FDFC29003000FDF701
:103420000FFF607E002802D03000FDF771FE70BDF6
:1034300040990000FF22E53250430D4A70B58018D4
:10344000C8225143002446182820604335184835C7
:10345000A869002808D00078022805D10020FEF7CE
:103460005FFE698C08402882641C052CECD370BD7B
:103470004099000070B5FF23E5334343224C1D19EA
:103480004B00FF24EB18DB341C5F204B1B68002C27
:103490000EDA81000A009C68C918096A18320B6BA1
:1034A000A258010052691A484131FEF71FFA70BD57
:1034B000C8264E43AD19282674432C194834A58CD0
:1034C000002D0AD060256843C018302359434118A5
:1034D000180108188168491C81600020A080100034
:1034E000FFF732FB030AA071E371030C000E237295
:1034F0006072080AA172E072080C2073080E6073F3
:103500000120E07070BD000040990000A4B800D018
:10351000C03C0000F7B507000E00FDF728E81725AE
:10352000274CAD01002821D0F105076002D1002E03
:1035300000D0361D46600299C160FDF71CE8206886
:1035400041190A68521C0A6079783A7809021143D5
:103550000C2906D28900081840194168491C4160AD
:1035600002E018A0FEF7C2F90020FEBD78783A7894
:1035700001020120114380020129216815D0081899
:10358000416B491C4163206841194A6B521C4A63D4
:1035900079783A78090211430C290BD2890008186E
:1035A0004019816B491C816307E00818816B491C35
:1035B0008163E8E703A0FEF799F90020C043FEBD50
:1035C000A4B800D05553422055706C696E6B2042F0
:1035D0006164204D6573736167652054797065205F
:1035E00025640A00FEB5060029482A4C0321206004
:1035F000A060294849036060401AFCF778EF032176
:1036000026480902FCF772EF01212348C902FCF7A2
:103610006EEF06210020FCF7B2EF07210020FCF737
:10362000AEEF02251E4B012212210020009500F072
:103630005BFA022301221221002000F023FAFCF79A
:10364000A2EF1849A068FCF7A2EF1748FCF7A2EF19
:103650001648012102000B00019100900E48103A1B
:103660008021FCF79CEF124B124A13491348FCF7D8
:103670009AEF00200949030008220090029501906A
:10368000FCF794EFFCF796EFFCF798EF3460FEBD83
:10369000005B02D04CBB00D000BB02D0005802D06F
:1036A000459A00D0F80F0000D5090000C00102D0F3
:1036B0006D110000651100006F1100007111000014
:1036C000024A80008018C160704700004CBB00D0E7
:1036D00010B5040010001A006379002B0AD0E171C4
:1036E00001002000FDF7BEFB002803D001212000CF
:1036F000FEF75EFD10BD0000F0B5040060206043E1
:103700005D495D4B4018602161431522C9185B4B30
:1037100049791B68920100269A18002C8DB09C46AE
:1037200019D0916256494D68564AA10051588D42B0
:103730000FD9036B544A554F691A102B9E4606D079
:103740000BDC012B7ED0022B10D0042B01D1914237
:1037500026D80DB0F0BD5162E4E7202B03D0402BFA
:1037600001D0802BF5D1B9421AD8F2E7C379012BE9
:1037700002D0037A012B02D1914200D90126FF2207
:10378000393262436244D36D002B07D1126E002A96
:10379000F60310042038000004D1027A002A01D177
:1037A000B94201D8002ED8D0C27A037B029101928F
:1037B000009342792100384841317346FEF79AF868
:1037C00036481921006889014118CA682D490968DD
:1037D0000B6F0E6EEB1AC96D0B920891C11D099605
:1037E0000A93F931264A0F6A527BCE698B69079793
:1037F00004AF4CC70F6BFF26C5363658C0300B6878
:10380000826B03976F464CC7036BC26A896A24A018
:10381000FEF770F832481921006889014118CA681A
:1038200018490968FF3181318B6AEB1A8D69496942
:10383000134E0891C11DF93109950A930B92603618
:10384000767B0D6ACB698A69049600E014E005AEC8
:103850002CC60E6BFF25C5352D58C0300B68826B0A
:103860006F466CC7036BC26A896A1EA0FEF742F8F6
:103870002000FEF779FC70E7427B012A94D06CE7C8
:103880001C800000A4B800D00010FEFF00800000E3
:1038900000093D00409C0000BC3B0000A8B800D0DF
:1038A0005644535031204D6F6465202564202564B3
:1038B000202564202564202564202564202564209B
:1038C00025642028256420256420256429202825B6
:1038D00064202564292025642025640A0000000056
:1038E000ACB800D05644535032204D6F646520254B
:1038F0006420256420256420256420256420256417
:103900002025642025642028256420256420256442
:103910002920282564202564292025642025640A7F
:10392000000000007FB503A8FCF750EE0020FCF774
:1039300052EE03981E49103008600020FCF74EEE4E
:103940000120FCF74CEE032168460024017244720A
:103950008472E120400201901648694600902000E0
:10396000FCF740EE01206946FCF73CEE0125230000
:103970001A0029000020FCF73AEE23001A00290063
:103980000120FCF734EE0B2201210020FCF732EE7F
:103990000C2201210020FCF72EEE0D220121002037
:1039A000FCF728EE0E2201210020FCF724EE7FBD5B
:1039B0000C80000000E1F5057CB504001048FCF720
:1039C0001EEE104D0D2614E00A2809D16846067136
:1039D0000121002001AB6A46FCF714EEA842F7D0A3
:1039E0002300012100206A46FCF70CEEA842F7D024
:1039F000641C20780028E7D10148FCF708EE7CBD64
:103A00000C80000001780A8830B585000B488900D9
:103A10004459FF31013161180C6861052468090EB1
:103A2000146009D001224059890092028918401877
:103A300000680006000E1860002030BD1C3D00002C
:103A400030B58500064C90006359C21DF9329A18B2
:103A5000C90AC9021160615909180020086030BD07
:103A60001C3D000082000848890082580120800225
:103A70000818111808680122920610439212904308
:103A800008600020704700001C3D000010B5840055
:103A90000D4800598C0001218902611841180868FD
:103AA000012424072043000A1B0600021B0E1843B2
:103AB000631018433F231B02984312021043034A2A
:103AC00010430860002010BD1C3D000000000104F0
:103AD000830006488900C05801239B02C91840187A
:103AE0000068C00F10700020704700001C3D0000EF
:103AF00030B58500084892004059FF3201328018E5
:103B0000039C0068FF22D2009043C900435008186C
:103B10004460002030BD00001C3D000083000448CC
:103B20008900C05841181006000E08600020704738
:103B30001C3D0000526164696F49442025632043A5
:103B4000544D3A205761746368646F6720526573FF
:103B5000657443544D2028656E61626C6520256450
:103B60002C2073746174652025642C206163746952
:103B70007669747920737461747573203078257850
:103B8000202564292028546916011004103C0000E7
:103B90006D6572202564290A000000004552524FCD
:103BA0005220514544206973204E554C4C2C2070B6
:103BB000515344203D2025702C20716E203D20253E
:103BC000642C20526164696F4944203D2025642C97
:103BD000204368616E6E656C4944203D2025642C4D
:103BE00020574D4143203D2025640A0052616469FD
:103BF0006F494420256320547851756575652066AA
:103C000061696C6564206672616D652065786368C2
:103C1000616E6765207768656E20717565756520D2
:103C20006E6F74206163746976652C2043534D6F09
:103C300064652025642043544D2025640A0000005B
:103C4000526164696F494420256320547851756539
:103C500075655F5375636365656465644672616D20
:103C60006545786368616E67652063616C6C656447
:103C7000207768656E207175657565206E6F74209C
:103C80006163746976652C2043534D6F646520250C
:103C9000642043544D2025640A00000000F0FFFF1B
:103CA000220010040080000000000000000000005E
:103CB000FF00000000000000000000000400000001
:103CC00001000000F6031004000000D040F09FE562
:103CD00040F09FE540F09FE540F09FE540F09FE514
:103CE0000000A0E13CF09FE504E04EE20F402DE92A
:103CF00034E09FE534F09FE50F80FDE8FEFFFFEA2A
:103D000004E04EE20F502DE924E09FE524F09FE50A
:103D10000F90FDE800010000600300003403000084
:103D20009003000018040000340000D02C0000D0E4
:103D3000C96E00D0440000D0F56E00D06E0051E393
:103D40000703000A700051E34C01000A660051E3CA
:103D50000A28000A650051E30828000A670051E3B9
:103D60000628000A610051E30528000A003090E5AA
:103D70002334B0E180108123690051E32201000A5D
:103D8000640051E32001000A750051E31E01000A9E
:103D90006F0051E36C03000A780051E32108000A28
:103DA000E90051E34A03000AE40051E34803000A32
:103DB000F50051E34603000AEF0051E31B08000A37
:103DC000F80051E31B08000A003090E5A333B0E18E
:103DD00080108123630051E30003000A730051E364
:103DE0001608000AE30051E36505000AF30051E3F9
:103DF0001408000A0000B0E31EFF2FE170402DE917
:103E00000340A0E10250A0E10130A0E10020A0E1C8
:103E1000000054E304C0A01105C0A0011CEF6FE135
:103E200001008EE21CC0A0E13FE07E121FE07E0296
:103E30008500004A000053E3131F6F11121F6F012A
:103E40003F1071121F1071020E6051E08300004A92
:103E5000040076528400005A20004EE2040050E331
:103E600035C08CD12CCEA0E18F1F8FE20CC191E721
:103E70001F005EE320E04E8220606EE24000008A78
:103E80009C0581E01116A0E1301E81E11006A0E141
:103E9000000070E20010E1E29C0181E001C08CE0D2
:103EA0009C0581E01116A0E1301E81E11006A0E121
:103EB000000070E20010E1E2000053E39C0181E0A9
:103EC00001C08CE00700000A9C0581E01116A0E10A
:103ED000301E81E11006A0E1000070E20010E1E276
:103EE0009C0181E001C08CE09C1280E00010A0E306
:103EF0009C03A1E0300EA0E1110680E1906584E012
:103F0000311EA0E1914524E0062052E00430C3E0D8
:103F1000010053E3050052317080BD389C4286E0B9
:103F20000040A0E39C63A4E00030A0E320C06EE268
:103F3000366EA0E1146C86E1344EA0E196E58CE08B
:103F4000060090E00410A1E00E2042E0050052E1DE
:103F50007080BD38010090E20010A1E2052042E02F
:103F600005C052E00C20A0210000B0E20010A1E248
:103F700005C052E00C20A0210000B0E20010A1E238
:103F80007080BDE89C1580E00010A0E39C04A1E0D7
:103F90001116A0E1301E81E11006A0E1000070E2E0
:103FA0000010E1E29C0181E001C08CE09C1580E002
:103FB0000010A0E39C04A1E01116A0E1301E81E1F5
:103FC0001006A0E1000070E20010E1E29C0181E037
:103FD00001C08CE001C04CE29C1280E00010A0E324
:103FE0009C03A1E0310EA0E1906581E0062052E043
:103FF000901421E00130C3E0040053E105005201B8
:104000000010A0337080BD389C6281E00060A0E3A6
:104010009C13A6E00010A0E3366EA0E196E58CE0CC
:10402000060080E00E2052E096C42EE00E30C3E081
:10403000040053E1050052017080BD38010080E2A8
:10404000052052E00430C3E07080BDE80C002DE98B
:104050000010A0E30000A0E3F50100EB7C80BDE8C8
:104060000010A0E30000A0E37080BDE820E066E25D
:104070000000A0E30010A0E31446A0E1354E84E167
:104080001556A0E105E052E004C0D3E00000A0E036
:104090000C30A0210E20A021016056E27080BD38B6
:1040A000A440B0E16550A0E1F5FFFFEAF0F0F0F0C8
:1040B000E3388EE3E53594D7CCCCCCCCF6031004B2
:1040C000F00300D0C3300CC3A28B2EBAC84216B284
:1040D000AAAAAAAA3D0AD7A39DD8899DED25B4977F
:1040E0009224499208CB3D8D888888884208218493
:1040F0000000008000402DE900E0A0E1920E8CE07D
:1041000092C121E0931E21E00080BDE810402DE91E
:10411000C140B0E1A34024E00100005A000070E279
:104120000010E1E2030013E10100005A002072E2F6
:104130000030E3E232FFFFEB010114E30100000A6B
:10414000000070E20010E1E2020114E30100000A45
:10415000002072E20030E3E21080BDE87CB515007B
:104160000C001A000029009001D00019401E084BD5
:104170007B4469460190280000F015FC0500002CE6
:1041800003D06946002000F021FC28007CBD00001F
:10419000630800000FB41CB5084B06AA7B446946AF
:1041A0000090059800F0FFFB04006946002000F035
:1041B0000DFC20001CBC08BC04B018472D080000F2
:1041C00070B505000C00012A05D02868800600D5CE
:1041D000EA69002302E0012305E05B1C934202D25E
:1041E000E05C0028F9D1A869E618C01AA861286A1D
:1041F000C0182862280000F023FB04E06A682078D9
:10420000A968641C9047B442F8D3280000F02EFB44
:1042100070BD000001C08FE21CFF2FE1F7B5002642
:1042200075291068009914A511D000F030FB002802
:1042300002DA404211A508E0009909688A0701D511
:104240000FA502E0490704D50EA5012601E000F004
:1042500029FB009F0024243704E000F0B8EC303143
:104260003955641C0028F8D1009833002A00210039
:1042700000F023FBFEBD0000000000002D00000048
:104280002B000000200000007FC08FE21CFF2FE108
:10429000F8B50F000168090502D5224C7C4402E004
:1042A000204C7C440E3400210500243508E016071C
:1042B0001209360FA65D6E541E07491C32431B09B6
:1042C00016001E43F3D1220004680023240705D5FD
:1042D000702F06D0002901D01132022300F0EDFA30
:1042E000F8BD10320123F9E770B504000D00106825
:1042F000210000F0D7FA0200002329002000FFF778
:10430000C7FF70BDD21DD308DB000CCBC0E730B4B3
:10431000036820241268234303600823C36130BC70
:104320000023B5E738AB0000F3B50400002081B0EE
:10433000B8E0E16820008847002872D0252802D024
:104340006268A168ABE0594F00267F44E168200015
:1043500088470500202808DB312D06D2781920383F
:104360000078002801D00643F0E7B00701D504200B
:1043700086430020E0610700A0612A2D0AD02800B2
:1043800005F0AEFB002827D0303DB80000190090A2
:10439000856119E00298BA00121902C89161029071
:1043A000E168200088470500012F17D1E069002847
:1043B0001FDA202086431CE000980A2180694843C8
:1043C0000099401930388861E1682000884705006D
:1043D00005F086FB0028EFD1012F0AD02E2D08D141
:1043E000E168200088470500202006437F1C022F3B
:1043F000C3DBA069002803DA4042A0610120064324
:10440000F00701D0102086436C2D0BD0682D09D009
:104410004C2D3CD06A2D38D0742D38D07A2D36D022
:1044200016E041E0E1682F00200088470500B8420F
:1044300009D16C2F29D001208002E16806432000B9
:104440008847050004E06C2F1DD0FF200130064393
:10445000002D29D028004138192803D80120C00296
:10446000064320352660029A290020001600FFF737
:104470006AEC002810D001280BD0F61DF008C0000F
:104480000830029055E74020E1E78020D5E7002082
:10449000D3E7361D02964CE76268A1682800904772
:1044A000206A401C206244E7206AFEBDB2AA0000D8
:1044B000030052E3F6031004E00700D02A00009A3C
:1044C00003C010E20800000A0130D1E402005CE3FE
:1044D0000C2082E001C0D1940130C0E40130D1341D
:1044E00001C0C094042042E20130C034033011E224
:1044F0002500000A042052E21B00003A03C031E705
:10450000020053E30800000A0F00008A2C34A0E1E7
:1045100004C0B1E5042052E20C3C83E1043080E4A5
:10452000F9FFFF2A011081E20F0000EA2C38A0E118
:1045300004C0B1E5042052E20C3883E1043080E489
:10454000F9FFFF2A021081E2070000EA2C3CA0E1FB
:1045500004C0B1E5042052E20C3483E1043080E46D
:10456000F9FFFF2A031081E20000A0E1822FB0E1F1
:104570000130D12401C0D1240120D1440130C02414
:1045800001C0C0240120C0441EFF2FE110402DE9CE
:10459000202052E20500003A1850B1E8202052E2F3
:1045A0001850A0E81850B1E81850A0E8F9FFFF2A09
:1045B00002CEB0E11850B1281850A0281800B14818
:1045C0001800A0481040BDE802CFB0E104309124AB
:1045D000043080241EFF2F01822FB0E1B230D120A1
:1045E0000120D144B230C0200120C0441EFF2FE181
:1045F0000020A0E3040051E30700003A03C010E2EA
:104600000B00000A04C06CE202005CE30120C0144D
:104610000C1041E0B220C0A0050000EA81CFB0E15B
:104620000120C0240120C0240120C0441EFF2FE12E
:104630000020A0E300402DE90230A0E102C0A0E18B
:1046400002E0A0E1201051E20C50A0280C50A0285C
:1046500020105122FBFFFF2A011EB0E10C50A028C0
:104660000C00A0480040BDE80111B0E10420802406
:104670001EFF2F01B220C040010111E30120C01430
:104680001EFF2FE10120D0E50010D0E50230D0E57B
:104690000300D0E5021481E1031881E1000C81E1FF
:1046A0001EFF2FE12024A0E10000C1E50120C1E5AB
:1046B0002028A0E10220C1E5202CA0E10320C1E5D3
:1046C0001EFF2FE1013090E12100004A0020B0E3FD
:1046D000A03071E01A00003A203271E00F00003A79
:1046E000203471E00100003A00C0A0E3200000EA9D
:1046F000A03371E0810340200220B2E0203371E05A
:10470000010340200220B2E0A03271E0810240208B
:104710000220B2E0203271E0010240200220B2E02B
:10472000A03171E0810140200220B2E0203171E02F
:10473000010140200220B2E0A03071E08100402061
:104740000220B2E0011050E00010A0310200A2E00F
:104750001EFF2FE1022111E20010614240C032E051
:1047600000006022203271E01D00003A203471E028
:104770000F00003A0113A0E1203471E03F2382E3EF
:104780000B00003A0113A0E1203471E03F2682E3E0
:104790000700003A0113A0E1203471E03F2982E3D1
:1047A0000113A0213F2C8223003071E21D00002A5A
:1047B0002113A021A03371E0810340200220B2E048
:1047C000203371E0010340200220B2E0A03271E00A
:1047D000810240200220B2E0203271E0010240203C
:1047E0000220B2E0A03171E0810140200220B2E05D
:1047F000203171E0010140200220B2E0EBFFFF2AEE
:10480000A03071E0810040200220B2E0011050E0B1
:104810000010A0310200A2E0CCCFB0E10000604265
:10482000001061221EFF2FE1CCCFB0E100006042FA
:1048300001402DE90000B0E3000000EB0280BDE87C
:10484000EE0000EAED0000EA70B58569040000683A
:10485000C10601D5302600E02026C00707D070BD74
:104860006268A16830009047206A401C20626D1E7B
:10487000F6D570BD70B5856904000068C00707D122
:1048800070BD6268A16820209047206A401C2062A9
:104890006D1EF6D570BD09684A0502D500060016E2
:1048A0007047C905FCD5000400147047F6031004D6
:1048B000D00B00D009684A0502D50006000E7047EB
:1048C000C905FCD50004000C7047FFB5040081B099
:1048D00024300D0000902168880604D51022E0697C
:1048E0009143216000E00120A84201DD471B00E068
:1048F00000270498A1697A191018081AA061206885
:10490000C00602D42000FFF7A3FF002608E00398AA
:104910006268A168805D9047206A401C761C206216
:1049200004988642F3DB2068C0060AD52000FFF712
:104930008FFF06E06268A16830209047206A401C23
:10494000206238007F1E0028F4DC07E000986268CF
:10495000A168405D9047206A401C206228006D1EBF
:104960000028F3DC2000FFF789FF2068000602D54D
:10497000022005B0F0BD0120FBE7000001C08FE27E
:104980001CFF2FE111680268006A530501D5087009
:104990000AE0D30501D5088006E0130602D5C21748
:1049A00005C101E0520608600120704701694A1CF8
:1049B00002610878704700B58FB00291002105911F
:1049C0000549019379440391110004906846FFF76B
:1049D000B3FC0FB000BD0000E5FFFFFF0A681070D8
:1049E000521C0A6070474B680A689A4202D2531CF4
:1049F0000B6010707047000017C08FE21CFF2FE1A2
:104A000010B54369002B02D0C046C04601E0FFF755
:104A1000DFFB012010BD1268010024310A70002262
:104A20004A700122ECE711680022D243E8E7000057
:104A3000F7B5040015002C4986B07944002703C956
:104A40003E000090019111E007986A467100415ABA
:104A500002A800F0BEFC411C07D02168890603D5DE
:104A6000E269391891420ED83F18761C20688006FA
:104A700002D5E069B84206DDAE42E5DB0798710079
:104A8000405A0028E0D1A069C01BA0612000FFF7B8
:104A9000DFFE154979445A3903C90090002001917D
:104AA00016E041006A460798415A02A800F091FCBE
:104AB0000590401C0AD0002505E0626802A8A168A4
:104AC000405D90476D1C05988542F6D30498401CC4
:104AD000B0420490E5DB206AC01920622000FFF795
:104AE000CDFE09B0F0BD0000E6A3000001C08FE2DA
:104AF0001CFF2FE1F7B5D21D0026D20815A5D20064
:104B0000F52905CA11D0002A05DA00214042914159
:104B10000A0011A508E0009909688B0701D50FA5C7
:104B200002E0490701D50EA50126009F11000024CF
:104B3000243704E000F070E830323A55641C02007B
:104B40000A43F7D1009833002A002100FFF7BDFE89
:104B5000FEBD0000000000002D0000002B00000042
:104B60002000000045C08FE21CFF2FE170B500213E
:104B70000400243408E05507D2086D0F3035655421
:104B80005D07491C2A43DB0815001D43F3D1046867
:104B9000002310A2250708D520252C400C4304D063
:104BA000C46901230CA2641EC461FFF78EFE70BDB0
:104BB00010B5040010682100FFF77CFE02000023FE
:104BC0002000FFF7D3FF10BDD21DD108C9000CC9CA
:104BD000CCE7000000000000300000000A1040E2B6
:104BE000200140E0200280E0200480E0200880E0F6
:104BF000A001A0E1002180E0821051E0010080527C
:104C00000A1081421EFF2FE107402DE90200B0E3A8
:104C10005F0200FA0780BDE830402DE90A2050E22B
:104C200020E1A0E10030D1E201EF8EE10E0050E082
:104C30002111C1E020E2A0E101EE8EE10E0090E042
:104C40002112A1E020E4A0E101EC8EE10E0090E051
:104C50002114A1E020E8A0E101E88EE10E0090E03F
:104C60002118A1E0010090E00010A1E2A001A0E164
:104C7000810E80E1A111A0E1005190E00141A0E18D
:104C8000204F84E10140A4E0055095E00440A4E0F9
:104C9000052052E00430D3E00030A0E30A20824235
:104CA0003080BD48F6031004C00F00D0010090E230
:104CB0000010A1E23080BDE87047FFB50C008FB056
:104CC0001E0003CA089009914F007D0D00D16D1E92
:104CD0000021080009F060E80321099A89050840CD
:104CE000002A03DA8200801840080840800D01285D
:104CF0000A9002DD0020C0430A90089807430DD0B7
:104D0000EF48F049281848430714189800281DD088
:104D10007542291E1DDD0A9842421BE018980128A1
:104D200002D00020302104E00020F24305E02154AD
:104D3000401CB042FBDB30000022189B00212154B4
:104D40000F998B600A60486013B0F0BDBD1B6D1CED
:104D5000DFE70A9A002900DA69420BA800F0B4FBE9
:104D60000BA803AB07C807C30899099800F07EECAD
:104D700001910100D44802920918002D00910ADD2A
:104D8000D14903980A9A4942401803A903906846FA
:104D900000F0F8EE07E003990A9A081803A90390B7
:104DA000684600F008EF009000040292019103D0E1
:104DB0000020C043410800E01000189A002A03D0E8
:104DC0000022150000921EE0751E05D4FFF728EFA3
:104DD000303262556D1EF9D501220843079602D084
:104DE00000227F1C04E02078302801D100227F1EA1
:104DF000002A069789D01EE0112D07DAFFF710EF81
:104E0000303262556D1C02000A43F5D108430FD1C0
:104E10000021681E05E0235C625C6354491C225437
:104E2000401E8142F7DBA81B401E0795069002E05A
:104E3000009800280AD0079A18990020A0540F98CB
:104E4000079B069A4360026081607DE7112600207F
:104E500018905AE7F0B5D21D0D00D1080400C90022
:104E600093B003C90C900D9104F02EEE02000D9842
:104E7000C00F01D02D2007E02068810701D52B202D
:104E800002E04007C00F4001032A0F9001D0072A1B
:104E900005DB03002900200000F0D2FA0DE12068B4
:104EA000800601D5E76900E006272800652D04D0BB
:104EB000662814D0672D69D12DE00020112F0090B5
:104EC00001DB112300E07B1C0CAA03A910A8FFF74B
:104ED000F4FE1199002610987D1C0E9142E00120ED
:104EE0003B00C0070B90012000900CAA03A910A85A
:104EF000FFF7E3FE119D12991098002600290E95E8
:104F000001D1791C4518781B02D44642761E7D1CBF
:104F1000E81B00903AE0012F00DA01270020112F52
:104F2000009001DD112300E03B000CAA03A910A8AA
:104F3000FFF7C3FE1199109800260E9121683D00DD
:104F400009070BD40E99A94200DA0D0003A9012D1F
:104F500004DD4A19203AD27F302A06D0B84201DA5D
:104F6000011D04DA012100910FE06D1EEFE700281A
:104F700002DC86192D1A03E0411CA94200DD0D0058
:104F8000801B401C00900120C0070B902068000788
:104F900005D40098A84202DB0020C0430090694677
:104FA0000020C8720B98012102AF0337C90788425D
:104FB00025D0022010902B2011900B9800280BDA9E
:104FC00040420B902D20119006E00B98FFF70AEE5F
:104FD00030317F1E0B9039701099481E00291090B7
:104FE000F3DC0B980028F0D111987F1E38702068F0
:104FF000000501D5452000E065207F1E387001A81E
:10500000C01BC01D0B900F98002800D00120411933
:105010000098C01709180B980818A169081A401EB3
:10502000A0612068C00602D42000FFF715FC0F988D
:10503000002805D06268A1689047206A401C206261
:105040002068C00624D52000FFF706FC20E0002ED3
:1050500007DB0E98B04204DD03A86268805DA1689A
:1050600002E06268A16830209047206A761C401CEC
:1050700020620098401E00900AD100F0DCE9C06870
:1050800062680168405CA1689047206A401C206209
:1050900028006D1E0028DADC07E06268F6031004C1
:1050A000B01300D03878A1687F1C9047206A401C5C
:1050B00020620B99481E00290B90F2DC2000FFF7BC
:1050C000E5FB022044E6000001FCFFFF104D00005C
:1050D000E1DFFFFF01C08FE21CFF2FE1F0B5D21D21
:1050E0000400D0080D00C0008DB04668076831008C
:1050F000380004F0EEEC0200F00F01D02D2307E0A1
:105100002068810701D52B2302E04007C00F43012F
:105110006846002B037001D0012000E00020032A24
:105120000A9001D0072A04DB2900200000F08CF946
:105130002AE12068800601D40D2500E0E5697000B1
:10514000400D0D2D01904BDA300D00210B90080021
:1051500008F026EE032189050840002E05DA8200BA
:105160008018C20F1018401008408015012801DD7A
:105170000020C043A9000023182906D39C460A003A
:105180000123183A1B07D34003E001221205CA404D
:1051900094460C31202902D320393A0000E0320035
:1051A0008A40002802DD002A06D119E0002817D124
:1051B0000121C9078A4213D3190063467F185E4153
:1051C000002806D10120C007824202D1080087438F
:1051D0009E430B98310D814202D00198401C0190F2
:1051E0002068000502D56F49794402E06D49794491
:1051F00019396B460A9830221A540A980A7C401CC6
:105200001A54401C0A900198002801DC302000E06C
:1052100031201872019A0120002A02D0624BD21864
:1052200004E072003A4302D05F4A521C0192002D02
:1052300002DC2268120703D56A462E205072022033
:105240000022864694460CE032033601120F6D1E92
:105250008B5C02AA13546246401C521C052A9446D9
:1052600001DA002DF0DC002202AE08E03B0F3F0126
:10527000CB5C521C6D1E3354401C082A01DA002DF1
:10528000F4DC2268920601D50FE0401E704504DD73
:105290003218203AD27F302AF7D0002805DD3218A4
:1052A000203AD27F2E2A00D1401E002D03DD3E225F
:1052B0003254401C6D1E497C31540199401C002918
:1052C00006DA2D21471C315401984042019003E039
:1052D0002B21471C315401987D21C900884206DBEF
:1052E000FFF7FCE93030F0557F1C019101E06428A4
:1052F00008DB01986421FFF7F2E93030F0557F1C9C
:10530000019101E00A2806DB01980A21FFF7E6E98E
:105310003030F0557F1C01980A21FFF7E0E9303169
:10532000F1550A98A1697F1C7A191018081AA06112
:105330002068C00602D42000FFF792FA216A6E4668
:105340000A980818206204E062683078A168761C28
:1053500090470A98401E0A90F6D22068C00602D5EF
:105360002000FFF77DFA02AE09E03078761C3E2877
:105370000DD06268A1689047206A401C20627F1EA1
:10538000F3D22000FFF782FA0DB00220F0BD206AB0
:105390004019206203E06268A168302090476D1ECA
:1053A000EDD3F8E7639C000001FCFFFF17C08FE21C
:1053B0001CFF2FE110B54369002B02D0C046C04648
:1053C00001E0FFF73DFB012010BD12680100243110
:1053D00082840022C2840122ECE711680022D243B9
:1053E000E8E770B505000C00160000F01EE8036841
:1053F000FF200230C05C012807D0FF2C10D8185DB8
:1054000000280DD001202C7070BDFF200830320024
:10541000C05821001B18FF3308332800984770BD7F
:105420000020C04370BD000010402DE9020000EBD9
:10543000040090E21080BDE82089000000009FE594
:105440001EFF2FE168DB00D0F8B5040000681F00E4
:1054500001230100DB0203261840072A05DB002890
:1054600001D017A506E017A504E0002801D016A575
:1054700000E016A5102081432160A069C01E002F06
:10548000A06101D0401EA0612000FFF7E9F9002FC4
:1054900009D06268F6031004A01700D0A168380094
:1054A0009047206A401C2062C01C206206E0206AEF
:1054B000FAE762682878A1686D1C9047761EF8D2DA
:1054C0002000FFF7E7F9F8BD4E414E006E616E0017
:1054D000494E4600696E6600F7B516008AB032483C
:1054E00078446C4603007C33C06F5A689B680DC4D7
:1054F0002D4B7B446E33083303AC0DCB0DC43720EA
:10550000C001081837211B30FFF7ECE80500803D8B
:105510000C001B3C02D56442012000E00020002763
:1055200009900FE0E0070BD00C201F497843794425
:105530004E3941186846320000F044EB6B4607C311
:1055400064107F1C002CEDD1174F7F442E3F16E0D6
:10555000E80712D02001C01901000EC90691089376
:105560000792C068F04201D198190890320006A94C
:1055700003A800F028EB03AB07C36D10641C002DDB
:10558000E6D10998002805D06946320003A800F04A
:1055900002EB04E03200694603A800F014EB0A9B1A
:1055A00007C30DB0F0BD000088990000010010B5E0
:1055B0000220C046C04610BD030010E303001103E3
:1055C0001700001A00402DE984E09FE5042090E4D4
:1055D000043091E40EC042E002C0CCE18EC31CE076
:1055E00003005201F8FFFF0A0040BDE8030CA0E1F0
:1055F000020C50E0FF0E1C030700001A0308A0E194
:10560000020850E0FF0C1C030300001A0304A0E191
:10561000020450E0FF081C03020053006000A011C8
:105620001EFF2FE10120D0E40130D1E4010052E35C
:10563000030052210400001A0120D0E40130D1E41B
:10564000010052E303005221F5FFFF0A030042E08C
:105650001EFF2FE1010101010020B0E3203171E0C4
:105660003CFCFF3AA03271E031FCFF3A203471E09B
:1056700026FCFF3A00C0A0E345FCFFEA80C0B0E191
:10568000000031032C0AA0E10C35A0E18125A0E146
:105690001E0B8012A11A83E16000A0E102118113A8
:1056A000CCCAB0E11700000A01007CE301018003CD
:1056B0001EFF2FE12238B0E10228A00110C0A00394
:1056C00000C0A0131F0040E2223CB0E10224A00170
:1056D00008C08C02223EB0E10222A00104C08C026C
:1056E000223FB0E10221A00102C08C02A23FB0E142
:1056F0008220A00101C08C020210A0E10020A0E3E2
:105700000C0040E01EFF2FE1020111E31EFF2F01FC
:105710000211D1E3E6FFFF0A2138B0E10118A00130
:1057200010C0A00300C0A013213CB0E10114A001EF
